:020000040800F2
:10000000782A002015020008DF360008AF32000809
:10001000DD360008910B00086F5700080000000053
:10002000000000000000000000000000F13B00089C
:100030007F0D0008000000008D3A00080D3C00080C
:100040002F0200082F0200082F020008113B0008B1
:100050002F0200082F0200082F0200082F020008BC
:100060002F0200082F0200082F0200082D0D0008A3
:100070002F0200082F0200082F0200082F0200089C
:100080002F0200082F0200082F0200082F0200088C
:10009000A15600082F0200082F0200082F020008B6
:1000A0002F0200082F0200082F0200082F0200086C
:1000B0002F0200082F020008993C00082F020008B8
:1000C0002F0200082F0200082F0200082F0200084C
:1000D0002F0200082F0200082F0200082F0200083C
:1000E0002F0200082F0200082F0200082F0200082C
:1000F0002F0200082F0200082F0200082F0200081C
:100100002F0200082F0200082F0200082F0200080B
:100110002F0200082F0200082F0200082F020008FB
:100120002F0200082F0200082F0200082F020008EB
:1001300000F002F800F05FF80AA090E8000C82449A
:100140008344AAF10107DA4501D100F054F8AFF277
:10015000090EBAE80F0013F0010F18BFFB1A43F0A5
:1001600001031847CC6D0000EC6D00000A444FF00D
:10017000000C10F8013B13F0070408BF10F8014B06
:100180001D1108BF10F8015B641E05D010F8016B4B
:10019000641E01F8016BF9D113F0080F1EBF10F8AF
:1001A000014BAD1C0C1B09D16D1E58BF01F801CBD2
:1001B000FAD505E014F8016B01F8016B6D1EF9D555
:1001C0009142D6D37047000000230024002500266A
:1001D000103A28BF78C1FBD8520728BF30C148BFAA
:1001E0000B607047642900F04B80002070471FB5FA
:1001F0001FBD10B510BD00F05AFA1146FFF7F7FF0A
:1002000005F038FD00F078FA03B4FFF7F2FF03BC05
:1002100000F080FA0948804709480047FEE7FEE7FA
:10022000FEE7FEE7FEE7FEE7FEE7FEE7FEE7FEE7A6
:1002300004480549054A064B70470000953C0008F4
:100240003101000878220020782A0020782600203A
:10025000782600200FB41CB5084B06AA7B446946DB
:100260000090059800F00BFA04460020694600F063
:1002700019FA20461CBC5DF814FB00004504000080
:100280002DE9F0410646002410687529314616A56F
:1002900010D0AFF30080002802DA404213A507E037
:1002A00031688A0701D512A502E0490704D511A5D6
:1002B000012401E0AFF3008000210A2206F12407A7
:1002C00009E0B0FBF2FCB0FBF2F302FB1C003030A3
:1002D00078541846491C0028F3D123462A46304654
:1002E000BDE8F04100F06DB9000000002D000000F5
:1002F0002B000000200000002DE9F05F8946044635
:100300004FF0000ADFF874B1FB44C0F820A020468B
:10031000E1688847002874D0252806D0D4E9012157
:100320009047206A401C2062F1E700265F46204685
:10033000E16888472028054607DB312D05D278196A
:1003400010F8200C08B10643F1E7B00701D526F0FC
:100350000406C4F81CA00027C4F818A02A2D09D050
:10036000284605F015FA38B304EB8708303DC8F885
:10037000185019E059F8041B204604EB87029161DC
:10038000E1688847012F054618D1E069002820DA86
:1003900026F020061DE0D8F8180000EB800005EBE1
:1003A00040003038C8F818002046E1688847054604
:1003B00005F0EEF90028EED1012F0AD02E2D08D13C
:1003C0002046E16888477F1C0546022F46F020063C
:1003D000C4DBA069002803DA404246F00106A061B0
:1003E000F00701D026F010066C2D0BD0682D09D037
:1003F0004C2D39D06A2D35D0742D35D07A2D33D08F
:1004000016E038E0E1682F4620468847B8420546A6
:1004100009D16C2F26D04FF48060E1680643204656
:100420008847054604E06C2F1AD04FF480700643CD
:100430000DB3A5F14100192802D8203546F4006615
:100440004A462946204626604E46FFF7CBFE80B13D
:1004500001280BD0F61D26F0070000F1080956E729
:100460004020E4E78020D8E70020D6E706F1040921
:100470004DE7284652E7206ABDE8F09F106C000067
:10048000032A40F2308010F0030C00F0158011F8C0
:10049000013BBCF1020F624498BF11F801CB00F898
:1004A000013B38BF11F8013BA2F1040298BF00F8EC
:1004B00001CB38BF00F8013B11F0030300F02580A9
:1004C000083AC0F0088051F8043B083A51F804CBD0
:1004D000A0E80810F5E7121D5CBF51F8043B40F896
:1004E000043BAFF30080D20724BF11F8013B11F8A1
:1004F00001CB48BF11F8012B24BF00F8013B00F8E5
:1005000001CB48BF00F8012B704710B5203AC0F06E
:100510000B80B1E81850203AA0E81850B1E8185004
:10052000A0E81850BFF4F5AF5FEA027C24BFB1E841
:100530001850A0E8185044BF18C918C0BDE81040B2
:100540005FEA827C24BF51F8043B40F8043B08BFBB
:100550007047D20728BF31F8023B48BF11F8012B82
:1005600028BF20F8023B48BF00F8012B70474FF02E
:10057000000200B5134694469646203922BFA0E8F3
:100580000C50A0E80C50B1F12001BFF4F7AF0907FF
:1005900028BFA0E80C5048BF0CC05DF804EB8900F0
:1005A00028BF40F8042B08BF704748BF20F8022B33
:1005B00011F0804F18BF00F8012B7047704770474B
:1005C00070472DE9F0470D4699469246044600F1E2
:1005D00024080168880604D5E06921F01001216033
:1005E00000E00120A84201DD471B00E00027A169CF
:1005F0007A1902EB0900081AA0612078C00602D41B
:100600002046AFF30080002608E0D4E901211AF863
:1006100006009047206A401C761C20624E45F4DBA1
:100620002078C0060AD52046AFF3008006E0D4E962
:10063000012130209047206A401C2062381EA7F11B
:100640000107F4DC07E0D4E9012118F80500904720
:10065000206A401C2062281EA5F10105F3DC20461B
:10066000AFF300802078000602D50220BDE8F087B5
:100670000120FBE701694A1C02610878704700B558
:100680008FB0CDE901310021059105497944CDE9CB
:10069000031011466846FFF72FFE0FB000BD0000A3
:1006A000E5FFFFFF0A6802F8010B0A607047754614
:1006B00000F02CF8AE4605006946534620F00700CE
:1006C000854618B020B5FFF7B3FDBDE820404FF0D8
:1006D00000064FF000074FF000084FF0000B21F02C
:1006E0000701AC46ACE8C009ACE8C009ACE8C009F9
:1006F000ACE8C0098D46704710B50446AFF30080E2
:100700002046BDE81040FFF77FBD0000004870475D
:100710001822002001491820ABBEFEE72600020087
:100720007047000070B5044600688168C943C90776
:1007300017D1816821F00101816001F02DF8054693
:100740000AE000BF01F028F8401B022804D9206805
:100750008068C043C00706D020688068C043C007D7
:10076000F0D0002070BDA06A40F01000A062E06AE6
:1007700040F00100E062012070BD10B50146406A02
:10078000826A12F0500F05D0006A026BBDE810407B
:1007900008461047816A41F40071816201688968E6
:1007A000C1F3424107290CD1017B51B9816A21F47F
:1007B00080718162816AC90403D4816A41F00101B8
:1007C000816200F0D1FB10BD10B5406A816A41F032
:1007D00040018162C16A41F00401C16200F0C6FBC0
:1007E00010BD10B5406A00F0C0FB10BDF8B5002682
:1007F0000446009600688168C943C9072DD0816806
:1008000041F001018160164816490068B0FBF1F023
:1008100000E0401E00900028FBD100F0BDFF05461F
:1008200016E000BF00F0B8FF401B022810D9206876
:100830008068C043C0070BD0A06A40F01000A062DF
:10084000E06A40F00100E06284F824600120F8BD15
:1008500020688068C043C007E4D10020F8BD0000D4
:100860007800002040420F002DE9F04F89B00026AB
:1008700005960696812107968170012180460827FA
:10088000C17000F089FF050E00F086FF00F47F00C4
:1008900045EA102500F080FF00F47F4045EA00257E
:1008A00000F07AFF45EA0061AF48C8F80410DFF8AD
:1008B000C4A20168AD480268891AAD4A4FEA511BCB
:1008C0001178491C11700020069004460790A74833
:1008D00001680BFB061999FA89F005908020A6495A
:1008E0008DF81800BAF8083031F8362050469A4290
:1008F0000AD084238DF81830BDF819300C2462F327
:100900000B03ADF81930028101EBC6058389E98834
:10091000994218D09DF818300C2C43F002038DF842
:10092000183001D03CB10CE0BDF81A3061F30F1360
:10093000ADF81A3005E0BDF8193061F30B03ADF8DE
:10094000193081810C34A988438999421DD09DF8C2
:100950001830182C43F001038DF8183003D00C2CFC
:1009600004D054B10FE0ADF81C100CE0BDF81A3003
:1009700061F30F13ADF81A3005E0BDF8193061F3DB
:100980000B03ADF8193041810C3482468078012880
:1009900076D1104605F002FF4FF06632774B05F036
:1009A0004DFF0022764B05F0A1FD4FF06632734BF0
:1009B00005F044FF4FF03332724B05F097FD05F020
:1009C000AFFC04F0F3FE0390688805F0E7FE4FF0FB
:1009D00066326A4B05F032FF0022694B05F086FD56
:1009E0004FF06632654B05F029FF4FF03332654B0F
:1009F00005F07CFD05F094FC00F028F90290A88831
:100A000005F0CCFE4FF066325C4B05F017FF00227C
:100A10005B4B05F06BFD4FF06632584B05F00EFF57
:100A20004FF03332574B05F061FD05F079FC02F0D1
:100A30005BFC0490E88805F0B1FE4FF066324F4B46
:100A400005F0FCFE00224E4B05F050FD4FF06632E3
:100A50004A4B05F0F3FE4FF033324A4B05F046FDAA
:100A600005F05EFC03F056FA0546BAF806000128C8
:100A700007D002281FD0032837D004285AD147E0D6
:100A800058E0DDE9022100953F48049B05F00AFC8F
:100A90000498CDE90005DDE9023249463A4805F0FF
:100AA0009DFB0498CDE90005DDE902324946364850
:100AB00005F012FB3EE0DDE9022100953248049B7F
:100AC00005F0F0FB0498CDE90005DDE90232494666
:100AD0002D4805F0F5F90498CDE90005DDE902326D
:100AE0004946294805F07CFA24E00498CDE9000540
:100AF000DDE902324946254805F04AFB0498CDE974
:100B00000005DDE902324946204805F0BDFA11E052
:100B10000498CDE90005DDE9023249461B4805F09D
:100B2000A8F90498CDE90005DDE9023249461748E5
:100B300005F02EFA600700D0012000EBD404641DFC
:100B400008EB0700224605A9FFF79AFC3819761C26
:100B5000B6B287B2082EFFF4B6AE78BAA8F8000095
:100B600009B03846BDE8F08F4C000020500000204E
:100B7000460000205E0000206002002066660A40F9
:100B800000FEAF403333FB3F3C0000205C00002000
:100B9000FEE70020704700207047000010B50022DB
:100BA0000449054803F01AFB0449034803F010FB0D
:100BB000002010BD08190020400C0020081500205E
:100BC0002DE9F0410F4605460146134803F000FBAE
:100BD000114803F0E1FA114C2088D0B9012020809F
:100BE00000266680304606E0618815F8012B0B1957
:100BF000011D401C5A5439688142F5D860883988F3
:100C00000844064980B2091D6080465404F0B8F9D2
:100C100026800020BDE8F081400C00200411002057
:100C2000094A10B5D2F8B822D2F814220AB101202C
:100C300010BD0A460146044803F0D0FABDE8104052
:100C4000014803F029BB0000400C00202DE9F041D1
:100C500007463148007910F0FF0056D02F4D4FF075
:100C60006634012804D0022820D0032852D11DE088
:100C700003F040F905F092FD22462B4605F0DEFD1B
:100C800005460C46384605F0F7FF2A46234605F090
:100C9000D3FE07D803F02EF906F05EF8394606F0C9
:100CA000EEF81FD9B7F17C5F32DD33E003F022F9B3
:100CB00005F074FD22462B4605F0C0FD05460E46A4
:100CC000384605F0D9FF884604462A46334605F0E3
:100CD000B3FE0AD803F00EF906F03EF8394606F0E6
:100CE000CEF802D84820BDE8F08103F003F905F002
:100CF00055FD0B4A0B4B05F0A1FD02460B46204665
:100D0000414605F05FFD05D802E00748874201DA59
:100D10004C20E8E74520E6E7300000206666E63F25
:100D20009A9999999999C93FCDCCCC3E10B505486F
:100D300000F07CFA0448054A01681160044909681A
:100D4000016010BDA00B00204C00002050000020CE
:100D50004800002030B590F840500124AC40C56BED
:100D60006C60046863604368102B036803D099606B
:100D70000068C26030BD9A600068C16030BD7047D5
:100D800000F0B2BD014900200870704760000020EB
:100D900072B6FEE7F8B500250446009590F82400E9
:100DA00001280BD0012084F824002046FFF7BAFC6C
:100DB0002046FFF71BFD060002D050E00220F8BDE0
:100DC000A06A20F4885040F00200A062022001F0E6
:100DD0005FFA25490968B1FBF0F0400000E0401ED1
:100DE00000900028FBD12068816841F008018160F3
:100DF00000F0D2FC074608E000F0CEFCC01B0A2839
:100E000003D920688068000715D42068806800072F
:100E1000F2D42068816841F00401816000F0BCFCDC
:100E2000074612E000F0B8FCC01B0A280DD9206864
:100E30008068400709D5A06A20F0020040F0100049
:100E4000A06284F824500120F8BD20688068400723
:100E5000E8D4A06A20F0020040F00100A06284F80B
:100E600024503046F8BD000078000020F8B500247A
:100E7000009490F824202546012A12D0012280F8FF
:100E800024204A681F23072A0DD20668776B521E5A
:100E900002EB820293409F430B6893401F437763AA
:100EA00019E00220F8BD06680D2A0AD2376BD21F5E
:100EB00002EB820293409F430B6893401F433763CA
:100EC00009E0F76A0D3A02EB820293409F430B68F8
:100ED00093401F43F7620A68072306680A2A0AD369
:100EE000F7680A3A02EB420293409F438B689340B3
:100EF0001F43F76008E0376902EB420293409F43CB
:100F00008B6893401F4337610A68102A01D0112A69
:100F100020D1124B02689A4217D193681B0219D450
:100F2000936843F4000393600968102912D10C49B7
:100F30000C4A0968B1FBF2F101EB8101490000E0C4
:100F4000491E00910029FBD104E0816A41F0200193
:100F50008162012480F824502046F8BD002401401D
:100F60007800002040420F00704770477047000033
:100F70002DE9F04104004FF000057FD0A06A002663
:100F800028B9E66284F82460204600F081F8204603
:100F9000FFF7C8FBA16AC90600D420B1A06A40F0DF
:100FA0001000A0626AE0A16A21F4885141F00201B8
:100FB000A162334923688B42E16904D1B1F5402F26
:100FC00001D14FF40021277B4FF4807C41EA470296
:100FD00061680A43A168614508D0012906D0002153
:100FE00094F814E0BEF1010F02D00AE06146F7E781
:100FF000C7B1A76A47F02007A762E76A47F0010771
:10100000E7625F6827F469470F435F602368996868
:101010001C4F394011439960A16861450BD00129EB
:1010200009D00CE0DFF860E0A7690EEB47370F430B
:1010300047F40061E5E7218A0D05A5F580152168D3
:10104000CB6A23F470032B43CB62216889680F4B72
:101050001940914208D1E662A16A21F0020141F0F3
:101060000101A162BDE8F081A06A20F0020040F019
:101070001000A062E06A40F00100E0620120F1E7A8
:10108000003C0140FDF7E1FF00E0FFFFFE0E1FFF07
:1010900070B586B000260546009601960296039626
:1010A00000681A4988422FD11949886940F40070B4
:1010B0008861886900F400700490886940F010002D
:1010C00088618869694600F0100004903F20009014
:1010D000032001900F4800F055FA104C0E48C4E967
:1010E00000068020C4E90260400020618000606149
:1010F0002020A0610002E061204600F0BBF908B1A9
:10110000FFF746FE2C62656206B070BD0024014008
:10111000001002400010014008000240A00B002017
:101120002DE9F047894604463B4900683B4F0E1DB8
:101130009046884201D0B84207D1306810F4702F31
:1011400003D001252846BDE8F08794F82400012843
:101150000CD0012084F824002046FFF747FB05004F
:101160004FF0000004D084F82400EBE70220EAE707
:10117000A16A40F60162914341F48071A162216845
:10118000B94218D1326812F4702F14D0A16A41F418
:101190008011A1623168490505D5A16A21F4005189
:1011A00041F48051A162A16AC9040AD5E16A21F023
:1011B0000601E16206E0A26A22F48012A262496896
:1011C000E9E7E06284F82400216A15488862216A10
:1011D0001448C862216A1448086321686FF002004D
:1011E00008602068816841F480718160216843460D
:1011F0004A464C31206A00F07BF920688168C1F3CF
:1012000042410729816803D041F48011816099E748
:1012100041F4A001FAE70000002401400028014049
:101220007B070008E3070008C90700082DE9F05F05
:10123000C16B0A6801680B68046C4FF0040808FA77
:1012400004F8844D844E854FDFF814C2DFF8149201
:10125000DFF814A2DFF814B2DFF814E218EA020F84
:1012600065D05FEA437862D50A68920603D40A68BB
:1012700022F004020A60DFF8F0814FF48062016816
:1012800008F1140813011402414524D9A9420DD0D4
:10129000B1420FD0B9421AD0614515D0494515D099
:1012A000514501D1120312E0594501D104220EE04B
:1012B000714501D140220AE06D4D1435A94206D096
:1012C0006B4A2832914201D11A4600E02246674912
:1012D000091F0A6029E0A94213D0B14215D0B942D2
:1012E00020D061451BD049451BD0514502D14FF458
:1012F000800217E0414502D14FF0806212E059456B
:1013000001D104220EE0714501D140220AE0584D7E
:101310001435A94206D0564A2832914201D11A46C4
:1013200000E022464B4908394A60C16A71E04FF03B
:10133000020808FA04F818EA020F70D05FEA83780E
:101340006DD50A68920606D40A6822F00A020A607D
:10135000012180F82110DFF810814FF4007201683C
:1013600008F1140813011402414524D9A9420DD0F3
:10137000B1420FD0B9421AD0614515D0494515D0B8
:10138000514501D1120312E0594501D102220EE06C
:10139000714501D120220AE0354D1435A94206D00D
:1013A000334A2832914201D11A4600E022462F49A1
:1013B000091F0A6029E0A94213D0B14215D0B942F1
:1013C00020D061451BD049451BD0514502D14FF477
:1013D000001217E0414502D14FF0007212E059456A
:1013E00001D102220EE0714501D120220AE0204DF8
:1013F0001435A94206D01E4A2832914201D11A461C
:1014000000E02246134908394A60002180F8201084
:10141000816A00291CD0BDE8F05F0847FFE7082576
:10142000A540154214D01A0712D50A6822F00E0200
:101430000A6090F84020C36B012101FA02F25A6061
:10144000816380F82110002180F82010016BE0E713
:10145000BDE8F09F080002401C000240300002403E
:1014600044000240580002406C0002400804024060
:101470001C04024030B560B11A4B026814219A4234
:1014800009D2194B1344B3FBF1F1890001641749E8
:101490000AE0012030BD134B5B421344B3FBF1F172
:1014A000890001640F490839C163022180F82110C5
:1014B000136843F6F0718B43F0E901142143D0E93E
:1014C00002452C4321430469214344692143846933
:1014D00021431943116000214163012242770177C2
:1014E000084630BD08040240F8FFFDBF000002407E
:1014F00070B5044690F82000002501280CD001208A
:1015000084F8200094F821600020012E06D084F891
:1015100020000225284670BD022070BD022684F8F6
:101520002160A0632068066826F001060660204658
:10153000FFF710FCE06A00282068016802D041F043
:101540000E0106E021F0040101602068016841F00D
:101550000A0101602068016841F001010160D9E7DA
:1015600070B5044600F018F90546601C02D0044826
:101570000078044400F010F9401BA042FAD370BD7B
:101580006C0000202DE9F84FDFF8C8910024A9F184
:10159000040B23460F2709F1040AABF1040ED1E036
:1015A0000125A54006EA0502AA4276D1DFF8A8C1C6
:1015B0004E68A6EB0C0866452BD00DDC032E34D00C
:1015C00005DC36B3012E19D0022E2FD11BE0112ECF
:1015D00016D0122E2AD119E0B8F5881F19D006DCD2
:1015E000B8F5803F15D0B8F5801F1FD111E0B8F5D0
:1015F000001F0ED0B8F5041F18D10AE0CB6815E023
:10160000CB681B1D12E0CB6808330FE0CB680C33AE
:101610000CE08B682BB1012B4FF0080303D0456120
:1016200004E0042302E0056100E00023FF2A01D862
:10163000064601E000F104064FEA840501D9A5F150
:101640002005D6F8008007FA05FC28EA0C0803FA02
:1016500005F548EA0508C6F800804D68ED0070D52C
:101660003E4DAE6946F00106AE61AD6924F0030659
:1016700005F0010500953A4D06EB050CDCF8085025
:10168000A607360F07FA06F825EA0805DFF8D48022
:10169000404503D14FF0000825E052E0DFF8C88054
:1016A000404502D14FF001081DE0DFF8C080404501
:1016B00002D14FF0020816E0DFF8B480404502D1B5
:1016C0004FF003080FE0DFF8AC80404502D14FF047
:1016D000040808E0DFF8A080404502D14FF005087B
:1016E00001E04FF0060808FA06F848EA0508CCF8C9
:1016F00008804D68D9F80060ED024D4601D51643CB
:1017000000E096432E604D68DAF80060AD02554661
:1017100001D5164300E096432E604D68DBF800606B
:10172000AD035D4601D5164300E096432E604D683B
:10173000DEF80060ED03754601D5164300E09643E0
:101740002E60641C0A681646E2407FF429AFBDE8AB
:10175000F88F000008040140000011100010024042
:101760000000014000080140000C01400010014051
:101770000014014000180140001C0140C26821EA29
:1017800002030A4043EA0241016170470AB1016164
:1017900070470904FBE700000148806870470000BB
:1017A0006C0000200148006870470000E8F7FF1F48
:1017B0000148006870470000ECF7FF1F014800680F
:1017C00070470000F0F7FF1F02488168027811445B
:1017D000816070476C000020074810B5016841F037
:1017E00010010160032000F06DF80F2000F006F8F2
:1017F00000F024F8002010BD0020024070B50D4D0F
:1018000004464FF47A712878B1FBF0F00A49096870
:10181000B1FBF0F001F0CFF948B9102C07D200224B
:101820002146501E00F02EF800206C6070BD012093
:1018300070BD00006C00002078000020094808B549
:10184000816941F001018161816901F0010100912B
:10185000C16941F08051C161C06900F080500090C1
:1018600008BD000000100240002809DB00F01F0244
:10187000012191404009800000F1E020C0F80011F2
:1018800070470000F0B40E4B1B680C46C3F30223F4
:10189000C3F10705042D00D90425191D072901D21C
:1018A000002300E0DB1E012606FA05F1491E214057
:1018B00099409E40761E16403143F0BC03F058BF5D
:1018C0000CED00E0064900F0070208684FF6FF0340
:1018D000184040EA0220034A1043086070470000A5
:1018E0000CED00E00000FA05BFF34F8F05480168DA
:1018F000054A01F4E06111430160BFF34F8F00BF5F
:10190000FDE700000CED00E00400FA0510B50C0640
:1019100007D501F0070101EB810100EBC100283080
:1019200005E001EB810100EBC10000F5B47099B254
:1019300032B1012202730181190C4181002010BDD6
:1019400000220273C180F9E7704701EB810200EBCE
:10195000C202D0F8EC02D26B02F04DBE01EB810264
:1019600000EBC202D0F8EC02D2F87C2102F0A6BE55
:1019700070B504460B0601F0070000EB800104EB94
:10198000C1014FF001024FF0000503D581F8292075
:10199000283103E081F8695101F5B471087094F8B9
:1019A000A802012808D084F8A822206803F00CFBC4
:1019B00084F8A852002070BD022070BD70B50446A6
:1019C00001F00F006268904201D9012070BD0B0642
:1019D00001F0070000EB800104EBC1014FF00102B0
:1019E0004FF0000503D581F82920283103E081F864
:1019F000695101F5B4718D70087094F8A80201283E
:101A000008D084F8A822206803F07BFB84F8A85251
:101A1000002070BD022070BD2DE9F05F04685FEA10
:101A2000424C0B788D69B4F850C04FF000064BF66D
:101A30008F7948F2800A48F68F7B48F2C00E4FF447
:101A400080672AD54FF0020808EBC308C44407EBAF
:101A50004C07E45BC4F30904A54203D32D1B8D613D
:101A600001D00BE08E61066836F8235005EA0905BF
:101A700085F4005545EA0A0526F82350520609D593
:101A80000D78036833F8252002EA0B0242EA0E02C1
:101A900023F8252084B30A8929E04FF0060808EBD3
:101AA000C308C44407EB4C07E45BC4F30904A54234
:101AB00003D32D1B8D6101D00BE08E61066836F8D3
:101AC000235005EA090585F4005545EA0A0526F87C
:101AD0002350520609D40B78056835F8232002EA12
:101AE0000B0242EA0E0225F823202CB14A894969EB
:101AF0000068234603F0DEFD2046BDE8F09F2DE997
:101B0000F05F054600680C465FEA426C16468B693A
:101B10002278B0F850C048F68F774CF280094FF425
:101B2000004B4FF6FF7E4FF4806A4FF0000172D5F4
:101B30004FF0020808EBC208E0440AEB480C30F80A
:101B40000C00C0F30900834211D91B1AA3610FD006
:101B5000730407D52E6836F822303B4043EA090368
:101B600026F8223094F82420012A47D052E1A161BE
:101B7000607810B1012813D01AE02868B0F850300E
:101B8000184400EB0210B0F80424C2F30902A0F8D4
:101B90000424B0F8042442F40042A0F8042407E02E
:101BA0002868B0F85030184400EB0210A0F8041474
:101BB0006278286812B1012A11D018E0B0F85010EC
:101BC0000844217800EB0110B0F80C14C1F30901AE
:101BD000A0F80C14B0F80C1441F4004105E0B0F882
:101BE00050201044227800EB0210A0F80C14217849
:101BF0002846FFF7AAFE700472D40BE16269024422
:101C00006261E2690244E2612369226A9A4203D373
:101C10001846111A04E03EE084F824100AB1104678
:101C20002162617811B1012929D031E02968B1F828
:101C300050201144227801EB0211B1F80424C2F3C0
:101C40000902A1F8042401F204413E2807D94209FF
:101C5000C30600D1521E0B884BEA822207E048B12E
:101C60004208C30700D0521C0B880EEA822213439D
:101C70000B800DE00A8842F400420A8008E02968DF
:101C8000B1F850201144227801EB0211A1F80404AC
:101C900083B22289BAE04FF0060808EBC208E0449C
:101CA0000AEB480C30F80C00C0F30900834211D352
:101CB0001B1AA3610FD0730407D42E6836F82230A4
:101CC0003B4043EA090326F8223094F82420012AF5
:101CD00051D09FE0A161607818B1012814D01BE0B9
:101CE0003FE02868B0F85030184400EB0210B0F81C
:101CF0000424C2F30902A0F80424B0F8042442F436
:101D00000042A0F8042407E02868B0F850301844D6
:101D100000EB0210A0F804146278286812B1012ABE
:101D200011D018E0B0F850100844217800EB0110F1
:101D3000B0F80C14C1F30901A0F80C14B0F80C149D
:101D400041F4004105E0B0F850201044227800EB47
:101D50000210A0F80C1421782846FFF7F6FD700455
:101D600058D42278296831F82200384040EA090026
:101D700021F822004EE0626902446261E269024495
:101D8000E2612369226A9A4203D31846111A21623A
:101D900004E00AB11046216284F8241062782968B0
:101DA00012B1012A28D02FE0B1F850201144227836
:101DB00001EB0211B1F80C24C2F30902A1F80C24C2
:101DC00001F20C413E2807D94209C30600D1521E38
:101DD0000B884BEA822207E048B14208C30700D0D3
:101DE000521C0B880EEA822213430B800CE00A88F7
:101DF00042F400420A8007E0B1F8502011442278F2
:101E000001EB0211A1F80C04628983B261692868B0
:101E100003F09AFC2278296831F8220048F6BF7353
:101E2000184080F0300048F28003184321F8220067
:101E30000020BDE8F09F01F0070101EB810100EBFC
:101E4000C100D0F8840170472DE9F04104460F0627
:101E500001F0070000EB800104EBC1014FF0010627
:101E60004FF0000503D581F82960283103E081F89F
:101E7000695101F5B471022B08700A61CB7000D171
:101E80000D7194F8A802012809D084F8A86220688E
:101E900002F026FF284684F8A852BDE8F08102200F
:101EA000FBE710B501F0070404EB840100EBC1016E
:101EB000C1E95F230022C1F8842181F8692181F8FA
:101EC0006841006801F5B47103F070F9002010BD9D
:101ED00070B504460D4601F007006168884201D9DB
:101EE000012070BD29064FF000064FF0010207D512
:101EF00000EB800104EBC10181F82920283107E0C3
:101F000005EB850104EBC10181F8696101F5B4714C
:101F10008A70087094F8A802012807D084F8A822D3
:101F2000206803F02AF9680702D006E0022070BD9D
:101F300004F52C71206803F0E2F884F8A862002010
:101F400070BD10B501F0070404EB840100EBC10182
:101F5000C1E90F23012281F84C208B6400234B64DC
:101F600081F8292001F8284F006803F01FF90020AC
:101F700010BD00001FB50446006803F097FB010484
:101F800003D5204601F0ACFB1FBD41050DD52068EF
:101F900030F8441F21F480610180204600F010F9E0
:101FA0000021204600F027F91FBD410405D5206817
:101FB00030F8441F21F4804174E0810405D5206885
:101FC00030F8441F21F400516CE0C10414D520689E
:101FD00030F8401F21F004010180206830F8401FD4
:101FE00021F008010180204600F0FDF8206830F85B
:101FF000441F21F4805155E0010540D5D4F800205C
:102000000020694632F8203021F81030401CC0B260
:102010000828F7D332F8400F40F001001080206804
:1020200030F8402F22F0010202802068B0F84420EE
:102030005205FBD530F8442F22F480620280002044
:10204000236831F8102023F82020401CC0B2082853
:10205000F6D3206830F8401F41F008010180206865
:1020600030F8441F21F400610180206830F8401FDF
:1020700041F004010180204600F0F2F81FBD810507
:1020800009D5206830F8441F21F4007101802046F2
:1020900000F0ADF81FBDC005FCD5206830F8441F26
:1020A00021F4807101801FBD2DE9F04186B004004C
:1020B00004D094F8A902002520B108E0012006B060
:1020C000BDE8F08184F8A852204600F05BF80320B8
:1020D00084F8A902206803F00BF804F1100114221F
:1020E00088466846FEF711FA94E80F0002F046FFB2
:1020F0000227D0BB0021206803F0F2FA002001265D
:102100000EE000BF00EB800104EBC10181F8296003
:1021100001F8280F401CCD700D614D61C0B28D617A
:1021200061688142EED8002012E000BF00EB800120
:1021300004EBC10181F8695181F8680181F86B51A4
:10214000C1F87851C1F87C51401CC0B2C1F880512F
:1021500061688142EAD8142241466846FEF7D5F903
:1021600094E80F0002F0BBFF10B184F8A972A5E754
:1021700084F8245084F8A962206802F0AEFF0020A1
:102180009DE7000008B500680B49884212D10B4852
:10219000C16941F40001C161C069002200F400007E
:1021A000009011461420FFF76DFBBDE80840142095
:1021B000FFF75ABB08BD0000005C00400010024061
:1021C00070B5044680680125022801D0FEF7E0FDC5
:1021D0002946D4F8EC0202F05AFBD4F8EC02BDE830
:1021E000704002F016BBD0F8EC0202F03ABBD0F817
:1021F000EC0202F040BB10B5044690F8A80201289A
:102200000BD0012084F8A80284F82410206803F081
:1022100069FA002084F8A80210BD022010BDD0F891
:10222000EC2200F52C71104602F03DBB10B50446BF
:1022300090F8A802012810D0012084F8A802206894
:1022400003F025FA01212046FFF77EFB206802F00B
:1022500042FF002084F8A80210BD022010BD00003B
:1022600010B50446D0F8EC0202F05CFBA06900282F
:1022700004D00348016841F00601016010BD000070
:1022800010ED00E0014901200862704700000E4295
:1022900010B501460020284C04292FD00BDC012961
:1022A00030D0022929D100F05BF96168C1F3813196
:1022B000491C49001FE0082920D010291DD1616860
:1022C0002268D20119D51D48C1F38342C903805C3D
:1022D0000AD56168194AC1F34041921E515C184AFF
:1022E000B2FBF1F1484301E01649484361684902F5
:1022F00003D440000321B0FBF1F010BDBDE8104055
:1023000000F03EB9226AC2F30121012903D19207EC
:1023100001D5C80310BD022905D1626A920702D512
:1023200049F6404010BD0329FCD121688903F9D545
:102330004FF2244010BD000000100240F46E00086F
:1023400000127A0000093D002DE9F84305460078A7
:10235000354CC00754D0E0690026C00008D4E069BD
:1023600040F08050E061E069012600F0805000906C
:102370002E480168C90512D40168804641F4807175
:102380000160FFF709FA074605E000BFFFF704FA0E
:10239000C01B642823D8D8F80000C005F6D5206AF1
:1023A00010F4407021D0A98801F4407181421CD002
:1023B000206A1F49012220F440700A6000220A604E
:1023C0002062C00711D0FFF7E7F9074641F28838CD
:1023D00008E000BFFFF7E0F9C11B414502D9032027
:1023E000BDE8F883206A8007F4D5206A696820F484
:1023F0004070084320621EB1E06920F08050E06127
:102400002878800705D56068A96820F44040084313
:1024100060602878C00605D56068696920F480008E
:10242000084360600020DBE70010024000700040BD
:10243000400442422DE9F0470F46050061D0434E6B
:10244000306800F00700B84209D2306820F0070079
:1024500038433060306800F00700B84251D1286836
:102460003B4C810712D5400703D5606840F4E0601B
:1024700060602878000703D5606840F460506060B1
:102480006068A96820F0F000084360602878C00701
:1024900028D06868012810D02168022810D0890748
:1024A00000292EDA616821F0030101436160FFF722
:1024B00073F9804641F288390DE021688903EFE71E
:1024C0008901EDE7FFF768F9A0EB0801494502D95A
:1024D0000320BDE8F0876068696800F00C00B0EB8D
:1024E000810FEFD1306800F00700B8420BD9306897
:1024F00020F0070038433060306800F00700B84231
:1025000001D00120E5E72878400705D56068E96833
:1025100020F4E060084360602878000706D5606812
:10252000296920F4605040EAC100606000F028F89A
:102530006168084AC1F30311515CC840064908604C
:1025400006480068FFF75AF90020C2E70020024061
:1025500000100240046F0008780000207000002086
:102560000448054900684968044AC1F3C221515C26
:10257000C84070477800002000100240146F000827
:102580000E4A51680E4801F00C03042B11D0082BA1
:102590000FD10C48C1F38343C903C05C0AD551680D
:1025A000084AC1F34041921E515C054A5043B0FBBA
:1025B000F1F07047044948437047000000100240A2
:1025C00000127A00E26E000800093D002DE9F84F84
:1025D000040070D02078C04DC00749D06868C0F3AF
:1025E0008100012807D06868C0F38100022809D162
:1025F0006868C00306D52868800339D5606800285C
:10260000E7D035E06068B0F5803F0BD010B1B0F591
:10261000A02F11D0286820F480302860286820F48A
:10262000802002E0286840F480302860606890B123
:10263000FFF7B2F806460AE0286840F480202860D8
:10264000F0E700BFFFF7A8F8801B642873D828685C
:102650008003F7D50CE0FFF79FF8064605E000BFC2
:10266000FFF79AF8801B6428F0D828688003F7D415
:1026700020789A4E80074FF001094FF0000839D5B5
:10268000686810F00C0F07D06868C0F3810002285A
:1026900009D16868C00306D42868800714D520696A
:1026A000012808D110E02069B0B1C6F80090FFF70A
:1026B00073F8074605E00AE1FFF76EF8C01B022831
:1026C000C4D828688007F7D52868616920F0F80029
:1026D00040EAC10028600DE0C6F80080FFF75CF812
:1026E000074604E0FFF758F8C01B022823D82868E3
:1026F0008007F7D4207800072CD57948A169D9B193
:10270000C0F80090FFF748F8074604E0FFF744F8E8
:10271000C01B02280FD8686A8007F7D571484FF4AC
:10272000FA510068B0FBF1F0009000BF0098411E24
:102730000091FAD20EE080E0C0F80080FFF72CF89C
:10274000074604E0FFF728F8C01B022875D8686A1E
:102750008007F7D42078400760D5E8690027C000DB
:1027600008D4E86940F08050E861E869012700F08A
:10277000805000905C480168C90513D40168834605
:1027800041F480710160FFF707F8824606E000BF60
:10279000FFF702F8A0EB0A0064284ED8DBF800002F
:1027A000C005F5D5E06801280AD008B1052813D086
:1027B000286A20F001002862286A20F0040002E064
:1027C000286A40F001002862E06841F2883B98B135
:1027D000FEF7E2FF82460BE0286A40F00400286220
:1027E000EEE700BFFEF7D8FFA0EB0A0159455AD823
:1027F000286A8007F6D50CE0FEF7CEFF824605E09A
:10280000FEF7CAFFA0EB0A0159454CD8286A800799
:10281000F6D41FB1E86920F08050E861E06988B320
:102820006968C1F38101022944D00228C6F860809A
:1028300004D0FEF7B1FF044638E034E0FEF7ACFF09
:10284000074604E0FEF7A8FFC01B02282BD8286823
:102850008001F7D4206AB0F5803F05D16868A1688F
:1028600020F4003008436860D4E90801084369682F
:1028700021F4741108436860C6F86090FEF78CFF7D
:10288000044606E025E000BFFEF786FF001B022895
:1028900009D828688001F7D51BE000BFFEF77CFF50
:1028A000001B022802D90320BDE8F88F28688001A8
:1028B000F4D40EE00128F7D06868226A00F4803171
:1028C000914204D1616A00F47010884201D0012065
:1028D000EAE70020E8E70000001002400000424262
:1028E000800442427800002000700040704770472A
:1028F00010B5044600680168C90717D04168C907C8
:1029000014D040684007204607D5FFF7F0FF216844
:102910006FF004004860042002E0FFF7E7FF0120A9
:1029200060742068416821F00101416010BD000021
:1029300070B5040003D0607C002610B105E00120D2
:1029400070BD2674204600F03DF8022060742046D9
:1029500000F014F9042550BB204601F0A2F830BB6A
:102960002068416821F007014160A06820B1144847
:10297000016821F0010101601148001F0168A2688F
:1029800021F46071114301606068411C04D1012091
:10299000FFF77EFC58B1401E2268C0F303419160EE
:1029A000216880B2C860204601F096F808B16574CD
:1029B000C5E7E67301206073A0736074002070BDEA
:1029C000306C004008B500680D49884217D1FFF708
:1029D00059FC0C48C16941F00061C161C0690A49F4
:1029E00000F00060009001200860002211460320E2
:1029F000FEF748FFBDE808400320FEF735BF08BDDD
:102A000000280040001002403C0442422DE9F04101
:102A10000D4604003BD0C5B3207C01283AD04FF0CE
:102A2000010884F8108002206074E87872B301F025
:102A30002FF8E073687801F02BF86073A87801F044
:102A400027F8A073C2B2617BE07B01F07EF82073AF
:102A50002870204601F069F84FF46161B0FBF1F194
:102A6000002518292DD91822B1FBF2F1A1EB011193
:102A700001EB4101C1EB011100EBC11631462046CB
:102A800001F0A2F80427C8B90BE000E004E001203F
:102A9000BDE8F0810220FBE7E07368786073A878F6
:102AA000CFE7204601F03AF8411C0AD0B04208D2E4
:102AB00006490144204601F073F810B1677425748B
:102AC000E5E784F8118025740020E1E780510100DA
:102AD0002DE9F0410D46040024D01DB3207C0128CF
:102AE00023D04FF0010884F8108002206074287809
:102AF000EAB100F0CDFF4FF4616100FB01F66878A8
:102B000000F0C6FFC0EB001006EB8006A87800F0CE
:102B1000BFFF35182946204601F056F80026042745
:102B200010BB0FE00120BDE8F0810220FBE74FF46D
:102B3000616148436978C1EB011100EB8100A9781C
:102B40004518E7E72068416821F00501416020460B
:102B500000F0E4FF411C0AD0A84208D20649014413
:102B6000204601F01DF810B167742674DAE784F886
:102B7000118026740020D6E78051010070B5040052
:102B80000AD02068416821F008014160FEF704FE88
:102B900005464FF47A7608E0012070BDFEF7FCFD93
:102BA000401BB04201D9032070BD20684068000777
:102BB000F4D5002070BD10B5401EB0F1807F01D368
:102BC000012010BD4FF0E02460610F21601702F07A
:102BD000CFFD0020A06107202061002010BD7047BC
:102BE0007047000070B590F83C20012A2CD00124D9
:102BF00080F83C40022280F83D2003685A689D68B6
:102C000022F070060A6832435A60104B02689A42FA
:102C10000ED00F4B9A420BD0B2F1804F08D00D4B23
:102C20009A4205D00C4B9A4202D00C4B9A4204D1E6
:102C3000496825F080031943916080F83D400021E8
:102C400080F83C10084670BD022070BD002C014089
:102C5000003401400004004000080040000C004027
:102C600010B5040003D094F83D0010B107E0012036
:102C700010BD002084F83C00204600F01FF8022020
:102C800084F83D00211D206801F014F8012084F82B
:102C9000460084F83E0084F83F0084F8400084F841
:102CA000410084F8420084F8430084F8440084F82A
:102CB000450084F83D00002010BD000000B585B03F
:102CC000002100910191029103910068114988420D
:102CD0001ED11148C16941F00401C161C16901F00F
:102CE00004010491816941F00801816180696946AC
:102CF00000F008000490402000900848FEF742FCD5
:102D0000002211461E20FEF7BDFD1E20FEF7ACFD81
:102D100005B000BD0008004000100240000C01405A
:102D200070B5044690F83C000025012817D0012614
:102D300084F83C60022084F83D002068826822F01C
:102D4000770222F47F4282600868502838D00DDC78
:102D500020284FD005DC90B3102811D14AE0022082
:102D600070BD302846D040280AD13BE060282FD0E3
:102D700070280DD0B0F5805F03D0B0F5005F12D0A1
:102D8000012584F83D60002084F83C00284670BD91
:102D9000CB68D1E90121206800F0DFFF206881685D
:102DA00041F0770109E0CB68D1E90121206800F00A
:102DB000D4FF2068816841F480418160E1E719E037
:102DC000CA684968206801F020F85021206806E0B0
:102DD000CA684968206801F05FF86021206800F047
:102DE000C6FFCEE7CA684968206801F00EF84021A6
:102DF0002068F4E7226801461046F0E710B50E4A55
:102E00000168126891420FD10C4C217801290BD036
:102E1000017F012909D0022906D1042100F006FA18
:102E2000074908600120207010BD002100F0FEF964
:102E30000449086010BD0000F80B0020300000209D
:102E400058000020540000202DE9F041054690F87C
:102E50003C0000260C46012810D0012085F83C00DB
:102E600072B1042A1CD0082A2CD00C2A50D001267A
:102E7000002085F83C003046BDE8F0810220FBE7E9
:102E8000D4E90012E368286800F0D0FF286881695F
:102E900021F00C01816128688169A26811430FE06B
:102EA000D4E90012E368286801F008F8286881690D
:102EB00021F44061816128688169A26841EA0221A8
:102EC0008161D5E72868D4E9002C277B036A016A71
:102ED00021F480710162C16923F4007321F00301C0
:102EE00041EA0C0121F0F00C39074FF400774CEA6D
:102EF000116107EA02221A43C16102622868C169AE
:102F000021F00C01C1612868C169A26811432BE05E
:102F10002868D4E90021E768036AD0F820C02CF4BF
:102F2000805CC0F820C0D0F81CC023F400532CF4FF
:102F3000407C4CEA012121F4704C4FF6FF7101EA0C
:102F400007314FF4005741EA0C0107EA02321A43F5
:102F5000C16102622868C16921F44061C1612868C9
:102F6000C169A26841EA0221C16181E710B504008C
:102F700003D094F83D0010B107E0012010BD0020FF
:102F800084F83C00204600F01EF8022084F83D0042
:102F9000211D206800F08EFE012084F8460084F890
:102FA0003E0084F83F0084F8400084F8410084F833
:102FB000420084F8430084F8440084F8450084F813
:102FC0003D00002010BD704730B50446002551B1CA
:102FD00004290DD0082910D094F8412094F8450018
:102FE000012A11D10EE094F83E2094F84200F7E750
:102FF00094F83F2094F84300F2E794F8402094F8C6
:103000004400EDE7012801D0012030BD022059B174
:10301000042912D0082919D084F8410084F8450009
:103020000C293ED001253AE084F83E0084F84200A5
:103030002068C26842F0020210E084F83F0084F881
:1030400043002068C26842F0040207E084F84000B0
:1030500084F844002068C26842F00802C26001227D
:10306000206800F06DFE1149206888420ED010499A
:1030700088420BD0B0F1804F08D00E49884205D06D
:103080000D49884202D00D49884204D1816801F07F
:103090000701062903D0016841F0010101602846BB
:1030A00030BD2068C26842F01002D7E7002C014012
:1030B000003401400004004000080040000C0040C3
:1030C00070B50446006801694FF00005C9438907DF
:1030D00015D4C168C943890711D4E91E01610120D3
:1030E0002077206880698007204602D0FFF786FE9F
:1030F00004E000F098F8204600F096F82577206864
:103100000169C943490717D4C168C943490713D4A2
:103110006FF004010161022020772068806910F4BB
:10312000407F204602D0FFF769FE04E000F07BF804
:10313000204600F079F8257720680169C94309071E
:1031400016D4C168C943090712D46FF008010161A0
:10315000042020772068C0698007204602D0FFF74E
:103160004DFE04E000F05FF8204600F05DF82577A2
:1031700020680169C943C90617D4C168C943C90693
:1031800013D46FF010010161082020772068C06916
:1031900010F4407F204602D0FFF730FE04E000F03C
:1031A00042F8204600F040F8257720680169C943BD
:1031B000C90708D1C168C943C90704D1891E016183
:1031C000204600F032F820680169C943090609D495
:1031D000C168C943090605D46FF08001016120462A
:1031E000FFF7FDFC20680169C943490609D4C1689D
:1031F000C943490605D46FF040010161204600F043
:1032000055F820680169C94389060BD4C168C943D0
:10321000890607D46FF0200101612046BDE87040A7
:10322000FFF7DEBC70BD7047704770470246002054
:1032300041B1042909D008290AD00C2901D110680C
:10324000006C70471068406B70471068806B704767
:103250001068C06B704770B5044690F83C000128B8
:1032600012D0012584F83C50022084F83D0020460D
:1032700000F085FD01004FF0000007D084F83D50BC
:1032800084F83C00012070BD022070BD2168CA682E
:1032900022F04002CA602168CA6822F48042CA60F3
:1032A00084F83D5084F83C00002070BD7047FEE774
:1032B000F0B500230A24302537261F4611E000BF51
:1032C000B4EB107F02D905EB107C01E006EB107C1B
:1032D00001F813C001EB430C00015B1C8CF801707A
:1032E000DBB29342ECD3F0BD2DE9F04104462A480D
:1032F0002A4E007910F0FF000CD0012807D0284F8B
:103300004FF06635022808D0032843D120E0254835
:10331000844214DCB4423BDB3CE000F0EBFD03F004
:103320003DFA2A463B4603F089FA07460D462046F9
:1033300003F0A2FC3A462B4603F07EFBEAD800F0ED
:10334000D9FD03F009FD214603F099FDE2D819E00B
:1033500000F0D0FD03F022FA2A463B4603F06EFA55
:1033600006460D46204603F087FC32462B4603F006
:1033700063FB0AD800F0BEFD03F0EEFC214603F02B
:103380007EFD02D84820BDE8F0810748844201DA7A
:103390004C20F8E74520F6E730000020CDCCCC3EAD
:1033A0006666E63F333373409A99993E034A01219A
:1033B00011708088024940BA088070476000002080
:1033C000640000203EB500211C48009101911A4A7A
:1033D0000291026092158260012404730175032535
:1033E0004FF460220561C2614160FDF7C1FD08B183
:1033F000FDF7CEFC0A20CDE90004022469460F48FF
:103400000294FDF733FD08B1FDF7C2FC0C20CDE9B5
:10341000000469460948FDF729FD08B1FDF7B8FC2D
:103420000D20CDE9000569460448FDF71FFD002881
:1034300001D0FDF7ADFC3EBD00240140700B002023
:10344000094808B5416941F0010141614069002224
:1034500000F00100009011460B20FEF713FABDE8C2
:1034600008400B20FEF700BA001002402DE9F04F93
:1034700085B0002631480096019602960396816930
:1034800041F010018161816901F0100104918169AD
:1034900041F480718161816901F4807104918169D5
:1034A00041F008018161816901F00801049181699D
:1034B00041F020018161816901F02001049181695D
:1034C00041F0040181618069DFF8749000F004002C
:1034D0000490002201214846FEF758F9DFF864A065
:1034E0004FF44057002239465046FEF74FF9DFF8B7
:1034F00058B04FF48058012241465846FEF746F92D
:10350000012402250094CDE901456946484603950A
:10351000FEF738F800970395CDE901466946504615
:10352000FEF730F8CDF800800395CDE901466946F5
:103530005846FEF727F805B0BDE8F08F00100240AE
:1035400000200140000C0140001401401CB5002483
:1035500018480194164900940160611E41604FF4BF
:1035600080718160FFF7E4F908B1FDF711FC8DF877
:1035700004408DF805408DF80640012201A90D4850
:10358000FFF7A6FA08B1FDF703FC01208DF8000053
:103590008DF801008DF8020002468DF8034069465F
:1035A0000448FFF733FA002801D0FDF7F1FB1CBDFA
:1035B00000280040E40B002010B590B000240994CE
:1035C0000A940B94142104A80C94FCF7D0FF2D4806
:1035D00003940094019402940D9429490E9401607F
:1035E0004721C0E901144FF6FF71C0E9031480219F
:1035F0008161FFF735FB08B1FDF7CAFB4FF480503E
:10360000099009A91F48FFF78BFB08B1FDF7C0FB24
:103610001C48FFF7ABFC08B1FDF7BAFB042004908F
:103620005020CDE90504079404A916480894FFF733
:1036300012FE08B1FDF7ACFB0120CDE90040029479
:10364000002269460F480394FFF7FEFB08B1FDF71F
:103650009FFB022000900190042269460948FFF771
:10366000F3FB08B1FDF794FB0D940DA905480E94EA
:10367000FFF7B8FA002801D0FDF78AFB10B010BDA3
:1036800000080040F80B002010B500220F49104838
:1036900000F08AFF08B1FDF77BFB0E490C4801F0F2
:1036A00067F908B1FDF774FB0B49094800F088FD84
:1036B00008B1FDF76DFB064801F0B0F9002803D012
:1036C000BDE81040FDF764BB10BD00007C00002089
:1036D000400C0020E8010020FC000020FEE7FEE78F
:1036E0002DE9F84F044640F68F7B48F60F794FF4EA
:1036F00080684FF0000AC0E1B0F8441011F00F05E7
:1037000039D030F8256031047ED530F8251001EA33
:103710000B0141F0800120F8251005EB850004EB3A
:10372000C00797F8740107F5B47700286DD0F878D2
:1037300002286BD03978226832F8210048F68F735E
:10374000184048F2C003184322F821003978206855
:1037500030F82120B0F8503052047DD5022202EB1F
:10376000C1015A1808EB4201415A8905890D00919F
:1037700073D03A89DFE0C9062DD4018801EA090136
:1037800041F400410180206804F12805B0F8503070
:103790002978022202EBC1015A1808EB4201405A73
:1037A000C0F309006064E16B0844E0630021204637
:1037B000FEF7CBF894F8240000289CD0A8690028D4
:1037C00099D194F82400216840F08000A1F84C00C1
:1037D00084F824A051E1018804F5B4750A0521D5C7
:1037E000B0F850202B78062101EBC3010A4408EB06
:1037F0004201405A04F52C71C0F30903EB61EA88D9
:10380000206801F057FF02E0B0E070E080E020683F
:10381000018801EA0B0141F0800101802046FEF79A
:10382000FEFC2AE10904D5D5018801EA0B0141F02B
:10383000800101802068B0F850202B78062101EB30
:10384000C3010A4408EB4201405A83059B0DEB611A
:1038500010D0696971B101E061E05FE0EA88206839
:1038600001F028FFE9696869084468610021204681
:10387000FEF774F8216808880205ABD4C0F3013064
:103880000328A7D0B1F850000844B0F80C14C1F3D5
:103890000901A0F80C142A6900F20C403E2A09D94B
:1038A0005109D20600D1491E02884FF4004343EA71
:1038B000812109E0B2B15108D20700D0491C028829
:1038C0004FF6FF7303EA81210A43028021680888CA
:1038D0004BF68F72104080F4405048F28002104343
:1038E0000880CAE0018841F400410180EEE72068C9
:1038F000B0F850203B78062101EBC3010A4408EBE5
:103900004201415A8905890D009118D0FA8812E0C8
:10391000324639462046FEF77FF800900FE0062237
:1039200002EBC1015A1808EB4201415A8905890D81
:10393000009104D07A897969009B01F0BBFEF86997
:1039400000990844F8617969009808447861B86979
:1039500018B139690098814204D939782046FDF7B9
:10396000FDFF03E03946206801F020FC30062FD52A
:1039700005EB850004EBC001206830F8252002EA41
:10398000090242F4004220F8252091F82B0028314A
:1039900001281ED0F0056CD42068B0F850300D78A6
:1039A000022202EBC5021A4408EB4202805A8A69DD
:1039B000C0F30900824255D9121A8A6154D04A696B
:1039C00002444A61CA691044C861206801F0EEFBF4
:1039D00053E0C1F818A0087B524608B3700620D502
:1039E000487810B1012812D03AE02068B0F8502091
:1039F00010440A7800EB0210B0F80424C2F3090264
:103A0000A0F80424B0F8042442F4004206E0206840
:103A1000B0F8503018440B7800EB0310A0F80424E1
:103A20001EE04B78206813B1012B11D018E0B0F8DC
:103A3000502010440A7800EB0210B0F80C24C2F3B6
:103A40000902A0F80C24B0F80C2442F4004205E06E
:103A5000B0F8503018440B7800EB0310A0F80C2499
:103A6000097802E0C1F818A0E9B22046FDF76DFF21
:103A700003E032462046FEF742F82068B0F84410D2
:103A800009043FF539AE0020BDE8F88F7047704754
:103A9000010901EB810100F00F0000EB4100C0B211
:103AA000704770B50446FDF777FE05464FF47A7609
:103AB00006E0FDF771FE401BB04201D9032070BD46
:103AC000206840688006F4D52068416841F0100104
:103AD0004160002070BD000070B504460068416878
:103AE00021F010014160FDF757FE05464FF47A764C
:103AF00007E000BFFDF750FE401BB04201D9032094
:103B000070BD206840688006F4D5002070BD0000BC
:103B10000148FEF7EDBE0000E40B00200168086AD2
:103B2000496A89B241EA00407047006881698AB2F7
:103B3000C1698BB2816989B28A4203D0C06961F3DD
:103B40001F40704743EA02407047F0B56424C1EB60
:103B5000C1030927A500072603EB01130329B3FBC3
:103B6000F7F100F5FA60114401440AD2401EB0FB9F
:103B7000F4F201EB9001B0FBF5F0891A0844001D46
:103B800008E0B0FBF4F201EB9001B0FBF5F0891A0C
:103B90000844801CB0FBF6F106FB1100C0B2F0BD7A
:103BA00070B50D4606460024FFF77BFF48B9316823
:103BB000280C08623168A8B248623046FFF78CFFD3
:103BC00000B10124204670BD70B50D4606460024A4
:103BD000FFF767FF48B93168280C88613168A8B2DF
:103BE000C8613046FFF778FF00B10124204670BD60
:103BF0007047000001490120087070475F000020F5
:103C000001490020087070475F000020FDF7DCBD0F
:103C100030B595B028216846FCF7A9FC14210AA804
:103C2000FCF7A5FC18210FA8FCF7A1FC0121080452
:103C3000CDE900100024029402250491CDE907503B
:103C40004FF4E01009906846FEF7C0FC08B172B668
:103C5000FEE70F20CDE90A054FF48060CDE90C4066
:103C600002210AA80E94FEF7E5FB08B172B6FEE742
:103C700013200F904FF4407010904FF400401190BB
:103C800014940FA8FEF760FB002801D072B6FEE77F
:103C900015B030BD7047000010B50448FFF710FAAA
:103CA00003480168491C016010BD0000F80B0020AA
:103CB00048000020F0B502681C4B1D4D1D4E1E4FE4
:103CC0001E4C4FF0804C984209D0A04207D060456E
:103CD00005D0A84203D0B04201D0B84204D122F0AE
:103CE000700E4A6842EA0E02984209D0A04207D0FC
:103CF000604505D0A84203D0B04201D0B84203D1FC
:103D000022F44075CA682A434D6922F080022A4392
:103D100002608A68C2620A688262984201D0A04248
:103D200001D10969016301214161F0BD002C01400D
:103D30000004004000080040000C00400034014036
:103D400010B501F01F030121046A99408C430462FD
:103D5000016A9A401143016210BD10B5846842EABD
:103D6000032224F47F440A432243826010BD826808
:103D700022F070020A4342F007018160704770B57B
:103D8000036800249A6822F070054A682A4322F0EA
:103D900007050A682A439A604A6812F00F0F31D16A
:103DA0001211082A2ED2DFE802F02E2E2E2E0B2121
:103DB00027040B69D1E902210068FFF7CEFF22E05A
:103DC0000A68052A10D00268136A156A25F00105F1
:103DD000156202689569096925F0F00545EA011147
:103DE0009161006803620EE0012070BD0A69896874
:103DF000006800F00AF806E00A698968006800F0C7
:103E00004BF800E00124204670BD10B5036A046A37
:103E100024F001040462846924F0F00444EA0214EA
:103E200023F00A020A438461026210BD70B5056A7C
:103E3000046A24F0010404628469124EB0420ED078
:103E4000114EB0420BD0B0F1804F08D00F4EB042AF
:103E500005D00F4EB04202D00E4EB04203D124F036
:103E60000304144301E044F001041A0724F0F004B1
:103E700044EA126225F00A0301F00A011943826143
:103E8000016270BD002C014000340140000400407C
:103E900000080040000C004010B5036A046A24F0DA
:103EA00010040462846923F0A00324F4704444EAFB
:103EB000023243EA01118261016210BD30B5046A29
:103EC000056A25F010050562856925F4407545EA07
:103ED000022222F470454FF6FF7202EA033224F008
:103EE000A0032A43A02404EA01111943826101625C
:103EF00030BD0000034810B5806802F0F5FEC0B286
:103F000010BD00003000002001480079704700001B
:103F1000300000202DE9F04707463048007910F0C6
:103F2000FF0057D0012805D02D4C022821D00328AE
:103F300052D11EE0FFF7DEFF02F030FC4FF0663298
:103F4000284B02F0AFFD05460C46384602F094FEC1
:103F50002A46234602F070FD07D8FFF7CBFF02F098
:103F6000FBFE394602F08BFF20D91F4887422FDB2A
:103F700032E0FFF7BFFF02F011FCA04622461B4BC8
:103F800002F05CFC05460E46384602F075FE894696
:103F900004462A46334602F04FFD0AD8FFF7AAFF2F
:103FA00002F0DAFE394602F06AFF02D84820BDE886
:103FB000F087FFF79FFF02F0F1FB42460C4B02F047
:103FC0003DFC02460B462046494602F0FBFB03D867
:103FD0004C20ECE70748C9E74520E8E7300000201F
:103FE0009A9999996666E63F9A99193F9999E93F96
:103FF0009999C93FCDCCCC3E2DE9F041D0F8C032E3
:10400000D0F8B822CAB101EB810500EB8504002687
:10401000E7693FB103EBC5039B6BB7FBF3F503FB0C
:10402000157323B1C2F814620020BDE8F0810023AB
:104030001A46E66100F07FFCF6E70220F5E770B56E
:104040000546D0F8B84200F07AFBC4F80C02D5F867
:10405000B80248B1D5F8BC12D4F80402CA6804F515
:1040600003719047002070BD022070BD70B50446FA
:104070000026812100F0B6FA002501212046E562E4
:1040800000F0B0FA82212046C4F86C5100F0AAFA80
:104090002564D4F8B80248B1D4F8BC0204F52E74F3
:1040A00040688047206800F016FE2560304670BDED
:1040B00010B5D0E9AE4159B194F80002FF2807D0FD
:1040C0008B6894F8012221469847FF2084F800026B
:1040D000002010BD0A210180004870471001002017
:1040E0004321018000487047600100204321018086
:1040F000004870471C0100204321018000487047A0
:10410000A40100202DE9F04104460026007C4FF474
:104110000077012590B3402302228121204600F040
:1041200063FB4023E56202220121204600F05CFB94
:104130000823032282212046C4F86C5100F054FB6E
:104140004FF40770256400F0C7FDC4F8B802F8B159
:104150000546D4F8BC02006880470020C5F8140268
:10416000C5F81802207CD5F8042298B1402301211B
:10417000204600F045FB3046BDE8F081FFE73B46B6
:1041800002228121204600F02FFB3B46E562CAE770
:104190000126F0E73B46EAE710B5D0F8B81269B15E
:1041A000027C002AD1F8042205D04023012100F02E
:1041B00027FB002010BD4FF40073F7E7022010BD6D
:1041C00002460220002902D00020C2F8BC1270472B
:1041D000D0F8B802C0F8041200207047D0F8B80236
:1041E000C0F81022C0F80812002070472DE9FC41E9
:1041F0000546D0F8B87200208DF80000ADF8040034
:10420000064608780C4610F0600121D020293BD1E9
:10421000E288AAB10006607807D5D5F8BC128B6891
:1042200039469847E288394626E087F80002A079A7
:1042300087F80102E2883946284600F06AF828E04B
:10424000D5F8BC12607800228B682146984720E0A0
:10425000607820B10A2809D00B2815D110E095F814
:104260009C02032810D1022201A905E095F89C02C6
:10427000032809D101226946284600F064F808E0C5
:1042800095F89C02032804D02146284600F036F811
:1042900002263046BDE8FC8110B5D0F8B812A1B1B5
:1042A000D1F814220AB1012010BD0122C1F8142254
:1042B000D1F810220263B1F8102293B2D1F808228B
:1042C000812100F038FB002010BD022010BD10B588
:1042D000D0F8B42252689047002010BD134610B5A4
:1042E0000A46002100F08CFA002010BD134610B5DC
:1042F0000A46002100F01FFB002010BD10B5044647
:10430000802100F0FDFA2046BDE81040002100F0B9
:10431000F7BA10B50323C0F85C21C0F89432C0F896
:10432000602113460A46002100F06AFA002010BD01
:1043300010B505210023C0F894121A46194600F062
:104340005FFA002010BD10B50223C261C0F894329C
:10435000026213460A46002100F0EDFA002010BD6B
:1043600010B504210023C0F894121A46194600F033
:10437000E2FA002010BD000010B50A46024903A071
:1043800000F0E2F8004810BD040F00204344432031
:10439000436F6E666967000012200880004870470E
:1043A0009C00002010B50A46024903A000F0CCF89A
:1043B000004810BD040F002043444320496E74653B
:1043C0007266616365000000042008800048704741
:1043D0009800002010B50A46024903A000F0B4F886
:1043E000004810BD040F002053544D6963726F657F
:1043F0006C656374726F6E696373000010B50A4672
:10440000024903A000F0A0F8004810BD040F0020EE
:1044100053544D3332205669727475616C20436F6A
:104420006D506F727400000010B51A2008800A48A1
:104430000168001D0468001D0068081809D00822E2
:104440000649FEF735FF0549042210312046FEF7E4
:104450002FFF0248801E10BDE8F7FF1FB2000020AA
:10446000F8B504460020ADF8000048880D46010A62
:10447000082948D2DFE801F04704091747473C45BF
:10448000D4F8B012207C0A6819E0207C02260028AB
:10449000D4F8B40205D0C16A684688470146467020
:1044A0003EE0816AF8E7C0B206282CD2DFE800F0CF
:1044B000030A1014181CD4F8B002426805E06946DB
:1044C00090471CE0D4F8B0028268E2B1207CF6E7A5
:1044D000D4F8B002C268F8E7D4F8B0020269F4E791
:1044E000D4F8B0024269F0E7D4F8B0028269ECE790
:1044F000207C40B9D4F8B402416B68468847014635
:104500000EE0207C20B129462046FFF7F7FEF8BDDB
:10451000D4F8B402016B684688470146072048700A
:10452000BDF8000048B1EA8852B1824200D9024683
:10453000ADF800202046FFF706FFE8880028E6D106
:104540002046FFF70DFFF8BD70B5002300281ED0F0
:104550000446002502E06D1CEDB2641C2678002E96
:10456000F9D1022404EB450414801278CA545B1C70
:104570000322CA5400245B1C06E0CA545B1CDAB256
:104580008C54521CD3B2401C0278002AF5D170BD65
:1045900001004FF0000004D0012901D0022901D010
:1045A000022070470120704710B580B1D0F8B432B6
:1045B00013B10023C0F8B43209B1C0F8B012012120
:1045C00080F89C12027000F0BFF8002010BD02209D
:1045D00010BD10B5D0F8C002FDF7F0F9BDE81040ED
:1045E000FFF7D6BF10B5D0F8C002FDF7C1F9BDE89E
:1045F0001040FFF7CDBF2DE9F0411746044651B1F9
:10460000D4F8B40242691AB194F89C02032851D03C
:104610000220BDE8F081D4F89432002504F11400A2
:10462000022B03D0042B3AD0C3B33CE0D0E90363A0
:104630009E4207D9F11AC1608AB239462046FFF777
:1046400055FE12E08068B0FBF3F103FB110199B94C
:10465000984211D3D4F8981288420DD20022114604
:104660002046FFF743FEC4F8985200231A46194625
:10467000204600F0C5F816E0D4F8B402C16829B1AC
:1046800094F89C02032801D12046884780212046C7
:1046900000F036F92046FFF74BFE04E0FFE78021EB
:1046A000204600F02DF994F8A002012804D184F8E6
:1046B000A05201E0204690470020AAE770B51546B9
:1046C000044649B1D4F8B40282691AB194F89C0244
:1046D000032830D0022070BDD4F8941204F5AA70DB
:1046E000032902D005291ED027E0D0E903218A4200
:1046F0000BD9531AC3600846834200D303469AB2CB
:1047000029462046FFF7EAFD17E0D4F8B402016914
:1047100029B194F89C02032801D1204688472046FD
:10472000FFF71EFE09E000200146C4F8940220466F
:1047300000F0E6F801E020469047002070BDD0F878
:10474000C002FDF778BB000010B504461C481D49A7
:10475000C0F8EC42C4F8C0020160082141600221A7
:10476000816000218161C1610162FDF79DFC08B19A
:10477000FCF70EFB0022D4F8C0021823114604F502
:104780003074FDF7C3F85823002280212068FDF71C
:10479000BDF8C023002281212068FDF7B7F84FF44F
:1047A0008873002201212068FDF7B0F84FF4807370
:1047B000002282212068FDF7A9F8002010BD00002A
:1047C000281F0020005C00400A0601F07F01D0F89D
:1047D000C00201EB810100EBC10002D590F82A0074
:1047E000704790F86A01704710B51C461346D0F820
:1047F000C0022246FDF728FBBDE81040FFF7C8BE07
:1048000010B5D0F8C002FDF74CFBBDE81040FFF733
:10481000BFBE70B50022044640231146FFF7E4FFF7
:1048200040260125C4F864613346002280212046D9
:10483000C4F85851FFF7D8FF6662A56184F89C520E
:104840000020C4F894026060C4F8A402D4F8B8024E
:1048500028B1D4F8B40200214268204690470020D5
:1048600070BD90F89C12042903D190F89D1280F835
:104870009C120020704710B590F89C12032904D1B7
:10488000D0F8B412C96901B18847002010BD017485
:104890000020704710B5D0F8C002FDF7ACFCBDE8B1
:1048A0001040FFF775BE70B5044600F52A70054646
:1048B00000F04AF80120C4F89402B4F8AE02C4F83B
:1048C000980294F8A80210F01F010AD001290DD017
:1048D000022910D000F08001204600F011F80020DD
:1048E00070BD2946204600F09EF8F8E7294620468C
:1048F00000F0CAF9F3E72946204600F01DF9EEE77B
:1049000010B5D0F8C002FDF7E3FABDE81040FFF79C
:104910003FBE10B5D0F8C002FDF788FCBDE81040DE
:10492000FFF736BE90F89C1280F89D12042180F8A3
:104930009C120020704710B5D0F8C002FDF701FBB3
:10494000BDE81040FFF724BE0A7802704A78427032
:104950008A78CB7802EB032242800A794B7902EB0A
:10496000032282808A79C97902EB0121C1807047D4
:104970000246002011B1C2F8B412704702207047FD
:1049800010B5D0F8B42202241AB11268904700B9C9
:104990000024204610BD000070B50E461E4D8978DB
:1049A00004462970012931D894F89C0202280BD0C2
:1049B00003280FD031462046FFF7A0FC2978204677
:1049C000BDE87040FFF783BCD9B10320616084F873
:1049D0009C0209E071B16068884212D0C1B22046E1
:1049E000FFF775FC297861602046FFF7C9FF0228B0
:1049F0000CD006E0022084F89C0220466160FFF79C
:104A000066FC2046BDE87040FFF7AABC3146204650
:104A1000BDE87040FFF772BC0C01002010B5FFF735
:104A200078FF002010BD2DE9F0410A78002612F031
:104A3000600208D0202A01D0402A70D1D0F8B422D8
:104A4000926890476DE04B78002201250A2B66D2D0
:104A5000DFE803F0405D6557650805652C29FFF721
:104A6000FFFC5EE004468888D8B9C888C8B9488881
:104A7000802816D200F07F0794F89C02032810D0FB
:104A800084F89E7239462046FFF704FF2046FFF760
:104A900067FC1FB1022084F89C0242E084F89C521B
:104AA0003FE020463BE0FFF777FF3AE0CB88012B61
:104AB00035D190F89C32012B04D0022B02D0032B6D
:104AC0002DD104E08260012200F1080116E00122EC
:104AD000011D13E090F89C22012A03D0022A01D084
:104AE000032A1CD1CA88022A19D1C560D0F8A412A1
:104AF00009B10321C160022200F10C01FFF723FC80
:104B00000FE0498801290CD1C0F8A45211E090F8B7
:104B10009C32012B08D0022B06D0032B04D0FFF7C8
:104B2000EDFB3046BDE8F08149880129F9D1C0F894
:104B3000A422FFF715FCF4E72DE9F0410A460446EC
:104B400010780027097910F060030AD0202B01D0DB
:104B5000402B50D1D4F8B4021146836820469847C0
:104B60008FE0C0F34110012806D05078D0B301285F
:104B70002AD003283FD107E0D4F8B4021146836855
:104B80002046BDE8F041184794F89C02022802D064
:104B9000032872D10AE071B380296ED02046FFF756
:104BA000AFFE80212046FFF7ABFE6AE0508838B99F
:104BB00031B1802904D0D08810B92046FFF7A0FE7B
:104BC0002046FFF7CDFB5CE094F89C020228E2D07F
:104BD000032852D1508898BB4806F1D02046FFF7F1
:104BE000F8FCEDE7FFE794F89C020026022803D0CA
:104BF000032842D112E040E009B180293DD10806E6
:104C000001F07F0000EB800004EB800101D514313E
:104C100001E001F5AA7102220E602AE0080601F007
:104C20000F0000EB800004EB80000AD5806920B300
:104C300001F07F0000EB800004EB800514350BE0F1
:104C40001FE0D0F85801C0B101F07F0000EB8000F8
:104C500004EB800505F5AA7541B1802906D02046F0
:104C6000FFF7B2FD10B10120286000E02E600222A3
:104C700029462046FFF767FB03E011462046FFF771
:104C80003DFB3846BDE8F08170B5054608780C4616
:104C900010F0600003D0202801D0402816D195F8EC
:104CA0009C02012803D0022801D003280ED12079CC
:104CB00001280BD8D5F8B402826828469047E188CD
:104CC000014306D12846FFF74BFB02E02846FFF7D9
:104CD00015FB002070BD704700487047081D00207C
:104CE0002DE9F0470C78002630F8243048F68F1272
:104CF0001340CA78002A78D0012A7CD0022A02D038
:104D0000032A75D0012648F28002134320F824308C
:104D10000D7830F8253048F68F7423402B43134329
:104D200020F825300D7B48F2C00948F6BF734CF2DD
:104D3000800A4BF68F77EDB3CD7891F800C0022D45
:104D400030F82C507DD048F68F6805EA08051543E9
:104D500020F82C50B0F8505091F800C0054405EBF5
:104D60000C15B1F808C02CF0010CA5F800C4B0F87F
:104D7000505091F800C0054405EB0C15B1F80AC07D
:104D80002CF0010CA5F808C44D78002D7ED00D78CC
:104D900030F825C05FEA4C4C07D530F825C00CEA46
:104DA000040C4CEA0A0C20F825C091F800C030F839
:104DB0002C5000E022E06D0606D530F82C5025403E
:104DC00045EA090520F82C50CC780D78012C30F8F4
:104DD000254004EA03047CD084F02003134320F828
:104DE0002530C1E001E006E002E043F400738AE709
:104DF00043F4C06387E743F4806384E74D784DB3A1
:104E0000B0F850500F78054405EB0715CF8827F010
:104E10000107A5F800740F7830F827506D0606D505
:104E200030F82750254045EA090520F82750CC786E
:104E3000012C07D00C7830F82410194081F02001A3
:104E400004E064E00C7830F824101940114320F895
:104E5000241090E0B0F850300D78034403EB0513B4
:104E6000CD8825F00105A3F80854B0F850300D782E
:104E7000034403EB0513B3F80C54C5F30905A3F879
:104E80000C540D6903F20C433E2D00E045E00BD9B4
:104E90004FEA551CED0601D1ACF1010C1D884FF411
:104EA000004848EA8C2C0BE035B34FEA550CED076F
:104EB00001D00CF1010C1D884FF6FF7808EA8C2C0C
:104EC00045EA0C051D800D7830F825305B0408D5C7
:104ED00000E046E030F82530234043EA0A0320F89A
:104EE0002530097861B130F821303B4083F400531C
:104EF000134320F821303EE01D8845F40045E1E7EA
:104F00000188394081F440511143018033E025404C
:104F100048F2801845EA08051AE791F800C030F811
:104F20002C506D0406D530F82C50254045EA0A0572
:104F300020F82C5091F800C030F82C506D0606D5A2
:104F400030F82C50254045EA090520F82C500D7802
:104F500030F825403C4084F44054144320F8254068
:104F600070E7144320F825400B7830F823103940BF
:104F7000114320F823103046BDE8F0870020704729
:104F800070B50E4C0E4A0020A1884DBAE18849BA8E
:104F900032F830308B420BD102EBC0004168201D4B
:104FA00088472A46211DBDE870400648FBF768BACD
:104FB000401C80B20628EBD370BD00000411002015
:104FC000CC000020700700202DE9F04391F80C8000
:104FD0004F780A7848F6BF7C4BF68F7948F2800309
:104FE00048F2C0054CF2800648F68F74B8F1000F05
:104FF00028D0002F30F822704FEA474748D0002FC2
:1050000005DA30F822702740374320F822700A78FA
:1050100030F822707F0605D530F8227027402F43E4
:1050200020F822700D7830F825202240324320F8F5
:1050300025200C7830F8242002EA0C021A4320F8CC
:1050400024201AE07FB130F82260760605D530F8CA
:10505000226026402E4320F822600A7830F8221081
:1050600001EA0C010EE030F822506D0405D530F84D
:1050700022502540354320F822500A7830F822107B
:1050800001EA0901194320F822100020BDE8F0834D
:10509000002F05DA30F822702740374320F82270BD
:1050A0000A7830F82260760605D530F8226026406E
:1050B0002E4320F822600E7830F8262022402A4322
:1050C00020F826200C7830F8242002EA09021A433E
:1050D00020F82420C1E700207047002070470121FC
:1050E00020F8401F0021018081800182084670471E
:1050F00030F8401F21F43F4101800020704700201C
:10510000704730B50A7BB2BB4A7848F68F7548F2D3
:105110008004C2B10B7830F82320520607D530F84E
:1051200023202A4048F2C0052A4320F82320CA78C9
:10513000012A20D00A7830F8221048F6BF731940AF
:1051400081F0200114E00A7830F822305B0407D5A2
:1051500030F822302B404CF280052B4320F82230CF
:105160000A7830F822104BF68F73194081F44051C1
:10517000214320F82210002030BD10B54A7809786C
:10518000002A48F2800330F8212005D048F6BF7489
:10519000224082F0100204E04BF68F74224082F429
:1051A00080521A4320F82120002010BD2DE9F0473D
:1051B0000D464B78097B04464FF0000948F68F7284
:1051C00048F2800A4FF400474FF6FF78012B09D0D0
:1051D00000296FD0E87802286DD001286CD001201A
:1051E000BDE8F087AE692869864200D9064691B1CC
:1051F000E97802291ED0286A801B2862287834F8B2
:1052000020104906B4F85010214401EB001073D56A
:10521000A0F80C6416E1B3B2EA882046696900F090
:1052200093FAB4F850002978204400EB0110A0F85C
:1052300004640DE1296A814277D9297834F8210084
:10524000104048F28012104324F82100286A801B85
:105250002862287834F820104906697871D511B190
:1052600001292AD030E0B4F85010214401EB00109D
:10527000B0F80C14C1F30901A0F80C1400F20C40B2
:105280003E2E07D97109F20600D1491E028847EA6D
:10529000812107E04EB17108F20700D0491C028855
:1052A00008EA81210A4302800EE0018841F40041AE
:1052B000018009E0F1E020E195E1B4F850201119F6
:1052C00001EB0010A0F80C646A89B3B2204669694A
:1052D00000F03AFA6869304468612969286A8842AE
:1052E00002D9801B286202E00646C5F82090687843
:1052F00018B101282BD032E02FE0B4F85000297803
:10530000204400EB0110B0F80414C1F30901A0F827
:10531000041400F204403E2E08D97109F20600D1AF
:10532000491E028847EA812108E0A1E056B17108D0
:10533000F20700D0491C028808EA81210A43028052
:105340000DE00EE0018841F40041018007E0B4F86F
:1053500050002978204400EB0110A0F804642A8949
:1053600071E011B1012927D02DE0B4F8501021448B
:1053700001EB0010B0F80414C1F30901A0F8041403
:1053800000F204403E2E07D97109F20600D1491EF1
:10539000028847EA812107E04EB17108F20700D088
:1053A000491C028808EA81210A4302800BE0018837
:1053B00041F40041018006E0B4F85010214401EBB3
:1053C0000010A0F804642A89B3B22046696900F08D
:1053D000BBF96869304468612969286A884202D942
:1053E000801B286202E00646C5F82090687810B15C
:1053F000012836D026E0B4F850002978204400EB8C
:105400000110B0F80C14C1F30901A0F80C1400F25B
:105410000C403E2E07D97109F20600D1491E0288C0
:1054200047EA812107E04EB17108F20700D0491C1C
:10543000028808EA81210A43028003E0018841F4DE
:10544000004101806A89B3B22046696900F07CF9A5
:10545000297834F8210048F6BF72104080F03000FF
:105460000FE1B4F850100819297800EB0110CFE6CD
:105470002A7834F8220048F68F63184040EA0A0080
:1054800024F82200B4F850002A78204400EB0210DF
:105490008BB2A0F804342A89D6E7A9692869814229
:1054A00002D9091AA96102E00846C5F81890B4F8B3
:1054B00050102A78214401EB0211B1F80C24C2F3F8
:1054C0000902A1F80C2401F20C413E287DD94209C1
:1054D000C00600D1521E088847EA82220AE00888E6
:1054E00040F4004007E04208C00700D0521C088882
:1054F00008EA822210430880BBE033BBB4F85000B6
:105500002978204400EB0110B0F80414C1F309011C
:10551000A0F80414296900F204403E2907D94B0978
:10552000C90600D15B1E018847EA832307E041B129
:105530004B08C90700D05B1C018808EA8323194384
:1055400002E0018841F400410180687810B101282F
:1055500028D030E0B4F850002978204400EB011046
:10556000B0F80C14C1F30901A0F80C14296900F279
:105570000C403E2907D94B09C90600D15B1E0188A2
:1055800047EA832307E041B14B08C90700D05B1C01
:10559000018808EA8323194302E0018841F40041AD
:1055A000018008E0B4F850100819297800EB0110C8
:1055B000298AA0F80C14E869C0B3297834F82100CE
:1055C000430401D5430605D400E046E044F240031D
:1055D00018424ED134F82100104048F2C002104366
:1055E00024F8210045E0A9692869814202D9091AF5
:1055F000A96102E00846C5F8189013BBB4F8501032
:105600002A78214401EB0211B1F80424C2F3090203
:10561000A1F8042401F204413E2808D94209C30636
:1056200000D1521E0B8847EA822208E021E078B1BF
:105630004208C30700D0521C0B8808EA8222134399
:105640000B80697800293FF42EAF012909D010E0C2
:105650000A8842F400420A80F3E700287FF443AF4F
:105660003DE7B4F8502011192A7801EB0211A1F896
:105670000C04297834F821004BF68F72104080F426
:10568000405040EA0A0024F821000020A8E500214B
:10569000A0F844104FF43F41A0F84010002070479C
:1056A0000148FCF767BC0000281F0020B0F8440048
:1056B0007047000010B500EB42005C0800F5806008
:1056C00009D000BF30F8042B01F8012B120A01F8B1
:1056D000012B641EF6D1DA0701D00088087010BDD6
:1056E0000020704711B98021A0F84C1000207047AD
:1056F00070B586B00024124800940194029403947B
:10570000816941F00401816180690E4E00F004005E
:105710004FF4C0550490224629463046FCF736F82F
:1057200001200095CDE9010402200390694630462E
:10573000FBF728FF0A20FBF713FF06B070BD00003F
:10574000001002400008014010B55B1C00EB420055
:105750005B0800F5806009D011F8012B11F8014BAE
:1057600042EA042220F8042B5B1EF5D110BDFEE7AF
:105770000907090E002804DB00F1E02080F800147E
:10578000704700F00F0000F1E02080F8141D704712
:1057900030380A2801D201207047002070470000ED
:1057A0000148007870470000300000200F4942187F
:1057B0000F49B2F5001F01D8012213E00D4A0E4B2C
:1057C00002449A4201D802220CE00C4A0C4B0244DB
:1057D0009A4201D2032205E00A4A904201DA0022ED
:1057E00000E00422C1E9012010467047000070BFAC
:1057F000300000203333D3BF66662600D7A330C005
:105800007B142E00CDCCCC3E034900EB400001EBD5
:105810004000D0F8020000471800002010B5C2B0C8
:105820004FF484716846FAF7A2FE134C20780228E0
:1058300001D00E2801D0802000E00020ADF8060045
:1058400040F60101ADF8001040F28230ADF80200E0
:10585000C810ADF804006846FBF7E2F9BDF8060091
:10586000002806D00548227805A1037802A8FAF797
:10587000F1FC42B010BD00003C00002040000020C0
:105880007465726D696E616C20706F776572206FE0
:105890006E2073657175656E6365206375727265E0
:1058A0006E742073746174655B25645D2C20707266
:1058B000652D73746174655B25645D0010B5C2B0BD
:1058C0004FF484716846FAF752FE134C2078022890
:1058D00001D00D2801D0802000E00020ADF80600A6
:1058E00040F60101ADF8001040F28230ADF8020040
:1058F0004FF44070ADF804006846FBF791F9BDF82D
:105900000600002806D00548227805A1037802A8E1
:10591000FAF7A0FC42B010BD3C000020400000207F
:105920007465726D696E616C20706F776572206F3F
:105930006E2073657175656E63652063757272653F
:105940006E742073746174655B25645D2C207072C5
:10595000652D73746174655B25645D0000B5C3B02B
:105960004FF484716846FAF702FE13480078112854
:1059700001D0802000E00020ADF8060040F60101D3
:10598000ADF8001040F28230ADF802004FF44070E4
:10599000ADF804006846FBF743F9BDF8060000289F
:1059A00007D0064807A103780548027802A8FAF74D
:1059B00051FC43B000BD00005C000020400000200E
:1059C0003C000020706F776572206F6666207374EC
:1059D0006174655B25645D2C207072652D73746144
:1059E00074655B25645D000010B5C2B04FF484712E
:1059F0006846FAF7BCFD114C2078102801D08020B1
:105A000000E00020ADF8060040F60101ADF80010FE
:105A100040F28230ADF802004810ADF8040068464C
:105A2000FBF7FEF8BDF80600002804D0227804A198
:105A300002A8FAF70FFC42B010BD00005C00002085
:105A4000706F776572206F66662073746174655B32
:105A500025645D00044B01EB410103EB4101D1F8EA
:105A600002301146184700000000002010220149B2
:105A7000FAF706BD2002002010220149FAF700BD06
:105A80003002002010220149FAF7FABC400200203F
:105A900010220149FAF7F4BC5002002010B50A2484
:105AA00004E000BFB0FBF4F0B1FBF4F10A2801D927
:105AB0000A29F7D81070197010BD00002DE9F84FB1
:105AC0008146084601F0D8F8334C4FF066352A4637
:105AD000234600F0B3FE0022304B00F007FD2A46BB
