:020000040800F2
:10000000902B0020C9020008EF570008C5530008D4
:10001000ED570008C12C0008FB7700080000000025
:10002000000000000000000000000000015D00086A
:10003000BB2E0008000000009D5B00081D5D00084D
:10004000E3020008E3020008E3020008215C000864
:10005000E3020008E3020008E3020008E3020008EC
:10006000E3020008E3020008E30200085D2E000836
:10007000E3020008E3020008E3020008E3020008CC
:10008000E3020008E3020008E3020008E3020008BC
:100090002D770008E3020008E3020008E3020008ED
:1000A000E3020008E3020008E3020008E30200089C
:1000B000E3020008E3020008A95D0008E30200086B
:1000C000E3020008E3020008E3020008E30200087C
:1000D000E3020008E3020008E3020008E30200086C
:1000E000E3020008E3020008E3020008E30200085C
:1000F000E3020008E3020008E3020008E30200084C
:10010000E3020008E3020008E3020008E30200083B
:10011000E3020008E3020008E3020008E30200082B
:10012000E3020008E3020008E3020008E30200081B
:1001300000F002F800F0B8F80AA090E8000C824441
:100140008344AAF10107DA4501D100F0ADF8AFF21E
:10015000090EBAE80F0013F0010F18BFFB1A43F0A5
:10016000010318472C9000004C9000000A444FF007
:10017000000C10F8013B13F0070408BF10F8014B06
:100180001D1108BF10F8015B641E05D010F8016B4B
:10019000641E01F8016BF9D113F0080F1EBF10F8AF
:1001A000014BAD1C0C1B09D16D1E58BF01F801CBD2
:1001B000FAD505E014F8016B01F8016B6D1EF9D555
:1001C0009142D6D37047000000230024002500266A
:1001D000103A28BF78C1FBD8520728BF30C148BFAA
:1001E0000B6070476E2900F02783702900F083842C
:1001F000662908F0F986652908F0F686672908F06F
:10020000F386612908F0F28603681B0A28BF41F0D3
:100210008001692900F0B480642900F0B18075295B
:1002200000F0AE806F2900F01084782900F04F8430
:10023000E92900F0AB83E42900F0A883F52900F058
:10024000A583EF2900F00D84F82900F04E8403689F
:10025000DB0928BF41F08001632901F03380732955
:1002600001F03880E32901F04380F32901F0488050
:10027000002070471FB59DE8030001F01FFC01F04E
:1002800063F904000020002108F0D0F8401C6060F1
:100290000020002108F0B4F8E06001F039F81FBD3B
:1002A00010B501F09EF810BD01F021F91146FFF7DD
:1002B000E1FF07F05BFD01F0CFFB03B4FFF7F0FFB8
:1002C00003BC01F0CDFD0000094880470948004704
:1002D000FEE7FEE7FEE7FEE7FEE7FEE7FEE7FEE7F6
:1002E000FEE7FEE704480549054A064B7047000053
:1002F000A55D00083101000890230020902B00200C
:1003000090270020902700207CB51D4616460C0043
:10031000009001D02044401E074B7B442A4669468A
:100320000190304600F0A1FA05461CB10020694654
:1003300000F0AEFA28467CBD7D0500000FB40449EC
:1003400010B503AA029800F0B1FA10BC5DF814FBD6
:10035000842200200FB41CB5084B06AA7B446946D2
:100360000090059800F081FA04460020694600F0EC
:100370008FFA20461CBC5DF814FB0000310500001C
:100380002DE9F0410646002410687529314616A56E
:1003900010D000F0BDF9002802DA404213A507E0B2
:1003A00031688A0701D512A502E0490704D511A5D5
:1003B000012401E000F0B5F900210A2206F124072A
:1003C00009E0B0FBF2FCB0FBF2F302FB1C003030A2
:1003D00078541846491C0028F3D123462A46304653
:1003E000BDE8F04100F0CFB9000000002D00000092
:1003F0002B000000200000002DE9F05F8946044634
:100400004FF0000ADFF874B1FB44C0F820A020468A
:10041000E1688847002874D0252806D0D4E9012156
:100420009047206A401C2062F1E700265F46204684
:10043000E16888472028054607DB312D05D2781969
:1004400010F8200C08B10643F1E7B00701D526F0FB
:100450000406C4F81CA00027C4F818A02A2D09D04F
:10046000284607F0EFF938B304EB8708303DC8F8A9
:10047000185019E059F8041B204604EB87029161DB
:10048000E1688847012F054618D1E069002820DA85
:1004900026F020061DE0D8F8180000EB800005EBE0
:1004A00040003038C8F818002046E1688847054603
:1004B00007F0C8F90028EED1012F0AD02E2D08D15F
:1004C0002046E16888477F1C0546022F46F020063B
:1004D000C4DBA069002803DA404246F00106A061AF
:1004E000F00701D026F010066C2D0BD0682D09D036
:1004F0004C2D39D06A2D35D0742D35D07A2D33D08E
:1005000016E038E0E1682F4620468847B8420546A5
:1005100009D16C2F26D04FF48060E1680643204655
:100520008847054604E06C2F1AD04FF480700643CC
:100530000DB3A5F14100192802D8203546F4006614
:100540004A462946204626604E46FFF74BFE80B1BC
:1005500001280BD0F61D26F0070000F1080956E728
:100560004020E4E78020D8E70020D6E706F1040920
:100570004DE7284652E7206ABDE8F09F208C000036
:10058000032A40F2308010F0030C00F0158011F8BF
:10059000013BBCF1020F624498BF11F801CB00F897
:1005A000013B38BF11F8013BA2F1040298BF00F8EB
:1005B00001CB38BF00F8013B11F0030300F02580A8
:1005C000083AC0F0088051F8043B083A51F804CBCF
:1005D000A0E80810F5E7121D5CBF51F8043B40F895
:1005E000043BAFF30080D20724BF11F8013B11F8A0
:1005F00001CB48BF11F8012B24BF00F8013B00F8E4
:1006000001CB48BF00F8012B704710B5203AC0F06D
:100610000B80B1E81850203AA0E81850B1E8185003
:10062000A0E81850BFF4F5AF5FEA027C24BFB1E840
:100630001850A0E8185044BF18C918C0BDE81040B1
:100640005FEA827C24BF51F8043B40F8043B08BFBA
:100650007047D20728BF31F8023B48BF11F8012B81
:1006600028BF20F8023B48BF00F8012B70474FF02D
:10067000000200B5134694469646203922BFA0E8F2
:100680000C50A0E80C50B1F12001BFF4F7AF0907FE
:1006900028BFA0E80C5048BF0CC05DF804EB8900EF
:1006A00028BF40F8042B08BF704748BF20F8022B32
:1006B00011F0804F18BF00F8012B7047704770474A
:1006C000704770B5044685690068C10601D53026BB
:1006D00000E02026C00707D070BDD4E901213046D4
:1006E0009047206A401C20626D1EF6D570BD70B523
:1006F000044685690078C00707D170BDD4E901219F
:1007000020209047206A401C20626D1EF6D570BDE7
:1007100009684A0501D540B27047C905FCD500B249
:10072000704709684A0501D5C0B27047C905FCD5B4
:1007300080B2704770B50C460546012A05D028786E
:10074000800600D5EA69002302E0012305E05B1C76
:10075000934202D2E05C0028F9D1A869E618C01AD9
:10076000A861286A184428622846FFF7AAFF04E017
:10077000D5E9012114F8010B9047B442F8D328467B
:10078000FFF7B5FF70BD2DE9F0470D46994692463B
:10079000044600F124080168880604D5E06921F0C8
:1007A0001001216000E00120A84201DD471B00E0AC
:1007B0000027A1697A1902EB0900081AA0612078C4
:1007C000C00602D42046FFF77CFF002608E0D4E9EB
:1007D00001211AF806009047206A401C761C20620E
:1007E0004E45F4DB2078C0060AD52046FFF769FFA6
:1007F00006E0D4E9012130209047206A401C2062A5
:10080000381EA7F10107F4DC07E0D4E9012118F84C
:1008100005009047206A401C2062281EA5F10105B2
:10082000F3DC2046FFF763FF2078000602D50220A4
:10083000BDE8F0870120FBE711680268006A5305F4
:1008400001D508700AE0D30501D5088006E013063B
:1008500003D5C217C1E9000200E00860012070471B
:1008600001694A1C02610878704700B58FB0CDE974
:1008700001310021059105497944CDE90310114664
:100880006846FFF7B9FD0FB000BD0000E5FFFFFFB0
:100890000A6802F8010B0A607047D1E900239A4206
:1008A00002D2531C0B60107070470000074B70B5EC
:1008B0000D467B44FFF7D9FF0446284600F024FD8F
:1008C00010B14FF0FF3070BD204670BDEB720000DC
:1008D0002DE9FF5F15468A460446DFF8AC80F844F0
:1008E0000027D8E900103E46CDE9001010E03AF8A4
:1008F00016106A4602A800F0A7FD411C07D0217817
:10090000890603D5E269391891420DD80744761C4F
:100910002078800602D5E069B84205DDAE42E6DB0C
:100920003AF816000028E2D1A069C01BA061204659
:10093000FFF7C7FED8E90010CDE90010002017E04E
:100940003AF818106A4602A800F07EFDB0F1FF3FA9
:1009500081460BD000250DF1080B05E0D4E90121FB
:100960001BF8050090476D1C4D45F7D308F10100B9
:10097000B0428046E4DB206A384420622046FFF71C
:10098000B6FEBDE8FF9F00005E8700002DE9F04144
:100990008046D21D22F007020025D2E90002F52987
:1009A00015A614D0011E72F1000106DA0023D0EB67
:1009B000030063EB020211A608E0D8F800108B07D1
:1009C00001D50FA602E0490701D50EA60125114663
:1009D000002408F1240704E000F098F830323A557A
:1009E000641C50EA0102F7D12B46324621464046AC
:1009F000BDE8F041FFF7C7BE000000002D00000079
:100A00002B0000002000000030B4002100F124047D
:100A100008E002F00705D208303542EA4372DB08ED
:100A20006554491C52EA0305F3D10468002310A25F
:100A3000250707D5A40600D421B1C46901230DA25E
:100A4000641EC46130BCFFF79EBE10B5044621464B
:100A50001068FFF766FE02462046BDE810400023FE
:100A6000D2E7D21D22F00701D1E90023CCE7000034
:100A70000000000030000000F0B40D4601880905B8
:100A800002D5214C7C4402E01F4C7C440E340021F2
:100A900000F1240608E002F00F071209E75D42EAC0
:100AA00003721B097754491C52EA0307F3D10278F9
:100AB0000023120704D5702D06D009B1022311348A
:100AC0002246F0BCFFF75FBE01231034F8E770B593
:100AD00004460D4621461068FFF723FE02462946CC
:100AE0002046BDE870400023C6E7D21D22F0070370
:100AF000D3E90023C0E70368126843F020030360D2
:100B00000823C3610023B7E7C085000030B5B0F10A
:100B10000A024FEA900E71F100034EEA817EB0EBBB
:100B20000E0061EB91014FEA101E4EEA017E10EBC0
:100B30000E0041EB11114FEA102E4EEA016E10EB40
:100B40000E0041EB11214FEA104E4EEA014E10EB20
:100B50000E0041EB1141401841F100014FEAD00075
:100B600040EA41704FEAD10110EB80054FEA810461
:100B700044EA907444EB01046D1944EB0404521BE5
:100B8000A3414FF0000348BF0A3200D530BD401CDE
:100B900041F1000130BD70472DE9FF4F0C461E4664
:100BA0004FF0FF378BB0D2E90001DDF860800A908A
:100BB0008A46C1F30A5505B93D46002108464FF063
:100BC0000000BAF1000F00F4400005DA00EB8000ED
:100BD0004FF4400101EA50004FEA9059B9F1010F7A
:100BE00000DDB9460A9850EA4A000ED044F610508B
:100BF000A5F2FF3545432F14B8F1000F1ED0754202
:100C0000291E1EDDC9F100021CE0B8F1010F4FF0F2
:100C1000000001D0302103E0F24305E02154401CE4
:100C2000B042FBDB30460022002121540B99C1F871
:100C30000880C1E900200FB0BDE8F08FBD1B6D1C1E
:100C4000DEE74A4600DA694206A800F0E9FC06AB96
:100C500093E8070003AB83E8070050460A9901F0C8
:100C60009BF98DE80700A0F500501F38009003980D
:100C7000002D0ADD42F21F014A460844002303A961
:100C80000390684601F004FC09E0A0F500504A46D4
:100C90001F38002303A90390684601F00EFC8DE87D
:100CA00007000004000C03D04FF0FF30410800E0C3
:100CB0001046B8F1000F03D00022009215461EE046
:100CC000751E05D4FFF722FF303262556D1EF9D52F
:100CD000B3460122084302D000227F1C04E02078A2
:100CE000302801D100227F1E002A099784D01DE000
:100CF000112D07DAFFF70AFF303262556D1C50EAFA
:100D00000102F5D1084302D00098C8B10EE00021DD
:100D1000681E05E0235C625C63542254401E491C3B
:100D20008142F7DBAB46A81B401E0990002004F867
:100D30000B000B98099AC0F80880C0E9002B7AE7ED
:100D400011264FF0000857E72DE9F04F884604467A
:100D5000D21D22F0070191B0D1E90001CDE90A01CD
:100D600006F04CFD02460B98C00F01D02D2007E085
:100D70002068810701D52B2002E0202101EAC00074
:100D8000032A099001D0072A05DB03464146204685
:100D900000F006FC0BE12078800601D5E06900E058
:100DA0000620B8F1650F814606D0B8F1660F18D05D
:100DB000B8F1670F70D131E00020B9F1110F009048
:100DC00001DB112301E009F101030AAA01A90CA822
:100DD000FFF7E2FEDDE90C70002609F1010583460C
:100DE00047E001204B4600904FF000470AAA01A9B6
:100DF0000CA8FFF7D1FEDDE90DB00C995D46002689
:100E000010B909F101000D18B9EB050003D4C0F1C8
:100E1000FF3609F10105A5EB09002BE0B9F1010F3F
:100E200001DA4FF001090020B9F1110F0090484696
:100E300001DD112300E003460AAA01A90CA8FFF76F
:100E4000ABFEDDE90C704D46002683462078000796
:100E50000AD4AB4500DA5D4601A8012D04DD411935
:100E600011F8011C302907D04F4502DA17F1040FA1
:100E700004DA012082460FE06D1EEEE7002F02DC4F
:100E8000ED1B3E4403E0781CA84200DD7D1CB81B2E
:100E900000F1010A4FF000472078000703D4AA456B
:100EA00001DB4FF0FF3A0021B7F1004F0DF143088D
:100EB0008DF8431024D002202B23002F01DA7F422B
:100EC0002D230A21021EA0F1010000DC5FB197FB77
:100ED000F1FC97FBF1F201FB1C7C17460CF1300C86
:100EE00008F801CDEEE7A8F101000370218809059B
:100EF00001D5452100E06521A0F1010800F8011CA1
:100F000009980FA9A1EB0807FF1D00B101204119A5
:100F100001EBEA70A1693844081A401EA0612078EC
:100F2000C00602D42046FFF7CCFB099828B1D4E9CB
:100F300001219047206A401C20622078C00622D5FB
:100F40002046FFF7BEFB1EE0002E04DBB34502DDAA
:100F500001A8805D00E03020D4E901219047206A9B
:100F6000401C2062761CAAF101005FEA000A0AD147
:100F700000F0EAFAC0680168405CD4E901219047BA
:100F8000206A401C2062281EA5F10105DCDC07E078
:100F9000D4E9012118F8010B9047206A401C206217
:100FA000381EA7F10107F3DC2046FFF7A0FB032062
:100FB00011B041E62DE9F04F04460D46D21D22F056
:100FC000070089B0D0E900974846394606F016FC7C
:100FD0000246F80F01D02D2307E02068810701D5D4
:100FE0002B2302E0202101EAC0038DF820300BB151
:100FF000012000E00020032A824601D0072A04DBFA
:101000002946204600F0CCFA3FE12078800601D442
:101010000D2500E0E569C7F30A560D2D49DA0021D8
:101020004FEA175B08464FF00000002F00F4400025
:1010300007DA00EB80004FF4400100EBD07001EACA
:1010400060008115012901DD4FF0FF3100224FEAD8
:10105000850CBCF1180F06D31346ACF118004FF005
:101060008052C24003E04FF4801323FA0CF30CF1DA
:101070000C0CBCF1200F04D3ACF1200C09FA0CF0DD
:1010800001E007FA0CF000294FF0004801DD18B923
:101090000FE00ED140450CD319EB02095F4121B995
:1010A000404502D19F4329EA0209BBEB175F00D0FC
:1010B000761C2088000502D57B48784402E07A48F7
:1010C0007844193808AA302302F80A30037C0AF160
:1010D0000101002E0AF1020A53546A4602DC4FF065
:1010E000300101E04FF031014FF001088DF80010A0
:1010F00002D0A6F2FF3603E059EA470100D06B4E5A
:10110000002D02DC2178090704D54FF002082E21BA
:101110008DF80110C44600210BE0C7F303433F01E3
:10112000C35C491C6D1E02F80830052908F101084E
:1011300001DA002DF1DC00210CE000EB1973491CF1
:101140001B786D1E082902F808304FEA091908F1CA
:10115000010801DA002DF0DC21688B0602D516E0CB
:10116000A8F10108E04505DD02EB080313F8013C96
:10117000302BF5D0B8F1000F09DD02EB080313F8AE
:10118000013C2E2B03D1090701D4A8F10108002D41
:1011900005DD3E2102F808106D1E08F10108407CB3
:1011A000002E02F8080008F1010804DA2D2076422A
:1011B00002F8080002E02B2002F808000A214FF490
:1011C0007A70864208F101080BDB96FBF0F33033AE
:1011D00002F8083096FBF0F308F1010800FB1366F3
:1011E00001E0642E0CDB642096FBF0F3303302F850
:1011F000083096FBF0F308F1010800FB136601E0EC
:101200000A2E06DB96FBF1F0303002F8080008F1F8
:10121000010896FBF1F001FB1060303002F8080085
:10122000A16908F1010808EB050202EB0A00081A9F
:10123000A0612078C00602D42046FFF742FA216A56
:1012400008AE01EB0A00206204E0D4E9012116F89F
:10125000010B9047BAF1010AF7D22078C00602D5F7
:101260002046FFF72EFA6E4609E016F8010B3E28DD
:101270000FD0D4E901219047206A401C2062B8F1C8
:101280000108F2D22046FFF732FA09B00320BDE888
:10129000F08F206A2844206203E0D4E90121302045
:1012A00090476D1EEBD3F8E7C57F000002FCFFFFFF
:1012B00010B5436913B1AFF3008001E0FFF73AFACC
:1012C000012010BD127800F124010A7000224A703A
:1012D0000122EDE711684FF0FF32E9E710B54369ED
:1012E00013B1AFF3008001E0FFF7F2FA012010BD67
:1012F000128800F1240182840022C2840122EDE7D9
:1013000011684FF0FF32E9E7007B00F08000704782
:1013100010B542485421FFF7AAF941485421FFF77C
:10132000A6F940485421FFF7A2F93F493B483C4AFF
:101330003F4B08603D490A603A491960531C0365F8
:10134000481C1065012008653B48344A39A178449F
:1013500000F0E6FA20B9384878440A3800F085FBF6
:1013600037482F4A35A1784400F0DAFA20B93448DA
:1013700078440A3800F079FB32482A4A2FA1784491
:1013800000F0CEFA20B92F4878440A3800F06DFBFF
:1013900040232248DC000021224600F09EFA20B1C2
:1013A00025487844543800F060FB1D48224640230D
:1013B000002100F092FA20B121487844543800F01E
:1013C00054FB184822461023002100F086FA00281A
:1013D00006D01C487844BDE81040563800F045BBA4
:1013E00010BD104870B5006D20F001040B4800F0EE
:1013F0000DFB0B4800F00AFB0A4800F007FB09E070
:10140000206D20F00105204600F000FB204600F092
:101410009FF82C46002CF3D170BD00003022002034
:1014200084220020D82200202C020020300200203C
:101430003402002072000000447D000077000000AC
:10144000307D00001C7D000070B516460C46054638
:1014500000F072F8036893F80101012806D0FF2C10
:101460000FD8185D68B101202C7070BDD3F807014A
:101470003246214603F2071303442846BDE8704074
:1014800018474FF0FF3070BD0EB5CDE9000100F0F8
:1014900087FC029069460120ABBE0EBD08B56946C7
:1014A00000900220ABBE08BD1FB58DE8070069465D
:1014B0000520ABBE04B010BD1FB58DE80F00694616
:1014C0000620ABBEF6E708B5694600900920ABBE22
:1014D00008BD1CB5CDE9000169460A20ABBE1CBDA4
:1014E000704708B5694600900C20ABBE08BD754634
:1014F00000F0C2FAAE4605006946534620F00700E8
:10150000854618B020B5FEF7EDFEBDE820404FF04F
:1015100000064FF000074FF000084FF0000B21F0DD
:101520000701AC46ACE8C009ACE8C009ACE8C009AA
:10153000ACE8C0098D46704710B500F005F8001DF5
:1015400010BD00BFE96E0000004870474C2300202A
:1015500070B50446051F00F095FA0068002C14BF12
:10156000446870BD002C18BFAC423CBF2046646884
:10157000F8D301680A18AA4218BF456003D12A6847
:1015800005461144016028684119A1421CBF6C60E6
:1015900070BD6168696021680844286070BD000002
:1015A0002DE9F0411F46044603260168072A01F48D
:1015B000006004DB08B116A505E016A503E008B13C
:1015C00015A500E015A521F010002060A069C01E3F
:1015D000A0610FB1401EA0612046FFF772F84FB125
:1015E000D4E9012138469047206A401C2062C01C83
:1015F000206206E0206AFAE7D4E9012115F8010B20
:101600009047761EF8D22046FFF771F8BDE8F081CA
:101610004E414E006E616E00494E4600696E660096
:101620002DE9F047814616468AB0354878440DC802
:101630008DE80D0032487844801C03AC0DC884E866
:101640000D0041F69B300844372190FBF1F290FBEE
:10165000F1F5A5F1800501FB12041B3C02D56442A3
:10166000012000E00020DFF898A080460027FA441F
:10167000AAF1BE0A0EE0E0070AD03246684607EB40
:10168000470101230AEB810100F017FF8DE80700F5
:1016900064107F1C002CEED1194F7F44AE3F19E03F
:1016A000E80715D007EB04100DF1180A90E80E00BA
:1016B0008AE80E00C068F04201D1981908903246BD
:1016C000012306A903A800F0F8FE03AB83E8070096
:1016D0006D10641C002DE3D14FF0010332466946C2
:1016E000B8F1000F03A802D000F0D2FE01E000F034
:1016F000E4FEC9E90001C9F808200AB0BDE8F08796
:10170000F07A00002DE9F04705460C46C86820F441
:10171000201040F48000C860800602D5084600F022
:10172000FEFAE06841F282014FF0FF3901400229E0
:1017300003D0204600F09CFAB5E000F42041B1F55A
:10174000004F0FD1C00306D56168E06A884200D817
:101750000846606006E02069E06260606069FFF74B
:10176000C0FEA061A0680022EEB200280DDAE16898
:101770008B050AD4C043A06041F490302260E06041
:101780006068411C61600670A5E0E06890462260D8
:1017900040F40050E060206968BB6069FFF793FE89
:1017A000012704F12405A0B1A08910F4407F08D0DE
:1017B000E06900F0B2F9206118B1E06840F400601F
:1017C00016E0E7612561E06820F4407040F4806035
:1017D0000EE0E06900F0A1F900282061F1D0E06896
:1017E00040F4006010F4407FE06002D140F480706B
:1017F000E06020696060E06825696FF0010AC1055A
:101800001FD56168E06A884200D80846411B04D0B1
:101810002246284600F036FAF0BBE068010203D504
:10182000E562C4E9015854E0691CE1626160E16964
:1018300040F48030491EC4E9021030462E70BDE8E5
:10184000F087010202D500F480320AE06068411C92
:1018500061600670E0680A2E40F48030E06006D0D7
:101860000022E16A6068814203D90B4602E001224E
:10187000F7E70346A7895B1B7F0503D4E7699F420F
:1018800000DDE2B1814200D80146E5620F1AC4E9E9
:101890000158002B09DD00E005E0224619462846E4
:1018A00000F0F0F908B14846C9E747B1A069E56220
:1018B0006560C01BA061E06840F01000E060E06877
:1018C000000208D56168A069E562491B08446560AB
:1018D000A0615046B3E73046B1E770B5C468A507CC
:1018E00013D0650211D4B2F5807F09D0B2F5007F24
:1018F00006D0B2F5806F08D1012300F1240106E083
:101900005D1E6FF07F46B54201D3012070BD0161BD
:10191000C361416024F470611143C160002070BD57
:101920002DE9F0410C4607461646104600F06EF8C9
:101930002078611C61280AD0722802D077283CD117
:1019400002E00125002405E00225042402E0082429
:1019500048F2020511F8010B2B2806D0622809D0A5
:1019600011F8010C74280AD00BE045F0030544F08F
:101970000204EFE745F0040544F00104EAE744F00F
:10198000100438462146FFF77FFD411C15D0002189
:10199000316171604FF40071F560F1617061200791
:1019A00004D530460222002100F0E6F8306D40F008
:1019B000010030653046BDE8F0810020FBE72DE9ED
:1019C000F0410D460646104C206DC10704D0410879
:1019D00004D020F00104F7E722460EE0542000F086
:1019E0009CF807000ED0206D47F0010108435421F8
:1019F00020653846FEF73BFE3A4629463046BDE8AC
:101A0000F0418DE70020D6E7302200202DE9F04795
:101A100004464FF000094FF0FF37C568D4E904864B
:101A2000A80707D0204600F057F93046FFF736FDEB
:101A3000002802DA3846BDE8F087280502D540467E
:101A4000FFF786FD4C212046FEF711FE206D20F0A9
:101A5000010020654846EEE710B50446AFF300806C
:101A60002046BDE81040FEF728BC10B500F07EF916
:101A7000BDE8104000F074B9004870472C230020E6
:101A800070470000004870473423002070477047BB
:101A90007047704738B504460A4600206946AFF3E0
:101AA0000080002808BF38BD02460099204600F09B
:101AB000E4F9012038BD012000F033BAF8B5AFF3E6
:101AC0000080054600200C46102000BF0646A819DD
:101AD000A0420DD9324669460020AFF300800700CE
:101AE00008BF00F01EFA0098A04218BF0546C419AE
:101AF000FFF7C8FF05600746F01D20F007004619F4
:101B0000284600F0B3F9B44208BFF8BDA21B314625
:101B10003868BDE8F84000F0B0B970B50646FFF788
:101B2000B1FF056806F10B0020F00704B4429CBF2A
:101B3000002070BD2B466A68BAB11068A04210D36D
:101B400004F1080188423CBF5068586007D35168CF
:101B5000101941601168091B016058601460101D64
:101B600070BD13465268002AE7D121462846FFF788
:101B700091FF0028DED170BD2DE9F04104461646E4
:101B80000D464769007B80072ED03846FFF79BFC47
:101B900050BB3EB3012E02D0022E25D104E02046D8
:101BA00000F085F905441DE03846FFF79AFCE1682E
:101BB000002841F01001E16005DA204600F058F8F5
:101BC0000120BDE8F081C9030BD56268E16A91424A
:101BD00000D81146A26911442269891A814200DDA8
:101BE00008460544002D01DA0220EAE7E16A606850
:101BF000E268814206D29103E06203D522F400310B
:101C000041F01002A6690027AE4213DCE16A81426E
:101C100001D90B4600E0034603EB060C2369ACEB4D
:101C2000030CAC4506DD814201D98C4600E08446B8
:101C30009C4505D1A760276042F02000A5620DE019
:101C4000AD1BE669AE1B8142A66000D90846C01AEA
:101C5000281A20605819606022F0200003490840CB
:101C6000E060002084F84870ABE70000BFCFD7FFEA
:101C7000C16821F4001141F08001C1600021816040
:101C8000016070472DE9F047814614460E464FF03B
:101C9000FF383248D5685769054209D03846A169EE
:101CA000FFF717FC002811DB2C48C0430540E56016
:101CB0002B46324649463846FFF7F6FBA16920F02D
:101CC0000042B21A11440028A16103D02046FFF758
:101CD000CFFF4046BDE8F08770B504460569C06A8D
:101CE0006168884200D80846E16821F42011E1606B
:101CF000C90312D5A84208D02246411B2846FFF747
:101D0000C1FF10B14FF0FF3070BD0020E562C4E9A3
:101D10000150E06820F48030E060002070BD10B514
:101D20000446C06820F02000E060A16AA0698842F3
:101D30000DD02046FFF7D0FFE06820F4405040F07F
:101D40001000E060A06AA0612069E062606044F277
:101D50004001E0688843E06010BD00001000020010
:101D6000002801D000F07CB87047000010B5014693
:101D700002A000F0BDF8012010BD000053494752F9
:101D8000545245443A2052656469726563743A203E
:101D900063616E2774206F70656E3A20000000004A
:101DA00010B5431C02E010F8011B71B18107FAD194
:101DB0004FF0013202C88C1A8C4314EAC211F9D0D8
:101DC000C01A0A0603D0C01E10BDC01A10BD0A04F6
:101DD00001D0801E10BD0902FCD0401E10BD0000C5
:101DE0004FF0013C50F8042B51F8043B9A4221D1AA
:101DF000A2EB0C03934313EACC1317D150F8042B36
:101E000051F8043B9A4215D1A2EB0C03934313EA19
:101E1000CC130BD150F8042B51F8043B9A4209D152
:101E2000A2EB0C03934313EACC13DBD04FF000007A
:101E3000704700BFD01A01BAB1FA81F101F0180160
:101E400022FA01F0CB40C1F12001DBB2C0B2C01ACE
:101E50002CFA01F3D11A914311EAC311E6D170476C
:101E600001491820ABBEFEE72600020000210160F8
:101E7000C0E90110704710207047034640688C4647
:101E8000002818BF88423CBF03464068F8D3186852
:101E90001844884207D00CF1030020F00700001D11
:101EA000411A521A0146081D0A60FFF751BB10B5CE
:101EB0000146C268900703D0900607D5886A0AE0F9
:101EC00000F03EF801210160881E10BD8B69486852
:101ED00018440B69C01A91F848301BB191F84910A9
:101EE000401A10BD1103FCD50028FADD401E10BDBC
:101EF00070B505460C460A2000E06D1C00F018F88D
:101F000035B128780028F8D102E0641C00F010F800
:101F100014B120780028F8D1BDE870400A2000F004
:101F200007B810B500F010F8BDE81040FFF718BF73
:101F300008B569468DF800000320ABBE08BD00005F
:101F4000004870472C23002010B5012805D000213F
:101F500003A0FFF7CDFF012010BD09A1F8E70000A5
:101F600053494752544D454D3A204F7574206F6682
:101F70002068656170206D656D6F727900000000EA
:101F80003A2048656170206D656D6F727920636FCE
:101F900072727570746564005FEA400C08BF91F05E
:101FA000000F4FEA8C234FEAC12243EA51514FEA16
:101FB0001C5018BF00F5F0404FEA300018BF41F048
:101FC00000415FEA6C5C00F02980BCF1FF3F08BF74
:101FD00040F080407047130C06BF12044FF0100C05
:101FE0004FF0000C130E04BF12020CF1080C130F7B
:101FF00004BF12010CF1040C930F04BF92000CF10A
:10200000020CD30F04BF52000CF1010C11464FF02B
:102010000002A0F11F00A0EB0C00704711F0004F70
:1020200008BF704731F000413FF4D5AF0B0C06BF3D
:1020300009044FF0100C4FF0000C0B0E04BF090206
:102040000CF1080C0B0F04BF09010CF1040C8B0FF1
:1020500004BF89000CF1020CCB0F04BF49000CF146
:10206000010CCCF12003A0EB0C0022FA03F302FADE
:102070000CF241EA030100F10100704720F07F4CAF
:1020800080EA030023F07F47ACEB070303F57C53A2
:1020900000F0004003F1FF032DE980494FEA154BA2
:1020A00009B44FEA144325EA0B4E24EA03480FF221
:1020B000042606EB132749083E785FEA320203FB49
:1020C0000667C7F5000707FB06F64FEA54374FEAE5
:1020D000D64606F1020607FB066CCCF1005C4FEA1F
:1020E0001C472CEA074C07FB06F40CFB06F504EB37
:1020F00015464FEA961634BF00204FF000404FEAD5
:10210000D13706FB07FC4FEA1C4C0CFB0BF7D21B2C
:1021100003FB0CF761EB07010CFB0EF7B0EB07407C
:1021200072EB17420CFB08F734BFA2EB0742B2EB8D
:10213000074261EB17414FEA0C444FEA910706FB57
:1021400007FC4FEA1C4C0CFB0BF7B0EBC74072EBE3
:10215000573203FB0CF734BFA2EBC742B2EBC742C6
:1021600061EB57310CFB0EF7B0EBC70072EB577207
:102170000CFB08F734BFA2EBC702B2EBC70261EB5E
:102180005771039F4FEA816141EA921104EBCC043D
:102190004FEAD1374FEA826206FB07FC42EA90120F
:1021A0004FEA80604FEA1C4C0CFB0BF7D21B03FB81
:1021B0000CF761EB07010CFB0EF7B0EB074072EB7D
:1021C00017420CFB08F734BFA2EB0742B2EB074201
:1021D00061EB17414FEA8C554FEA910704EB9C24C1
:1021E00006FB07FC4FEA1C4C0CFB0BF7B0EBC7409F
:1021F00072EB573203FB0CF734BFA2EBC742B2EBD2
:10220000C74261EB57310CFB0EF7B0EBC70072EB26
:1022100057720CFB08F734BFA2EBC702B2EBC70240
:1022200061EB577115EB4C254FEA816141EA921140
:102230004FEA82624FEAD13742EA901206FB07FC6E
:1022400044F100044FEA80604FEA1C4C0CFB0BF792
:10225000D21B03FB0CF761EB07010CFB0EF7B0EB95
:10226000074072EB17420CFB08F734BFA2EB0742A2
:10227000B2EB074261EB174115EB1C154FEA8131B8
:1022800041EA92414FEA823242EA90424FEA80307C
:102290004FEA0C7644F1000448EA03434EEA0B4847
:1022A0004FF0000EB2EB080C71EB030724BF62463F
:1022B00039464EEB0E0E4FF0000B001852414941CB
:1022C0004BEB0B0BB2EB080C71EB03077BF1000B34
:1022D00024BF624639464EEB0E0E4FF0000B00183D
:1022E000524149414BEB0B0BB2EB080C71EB03076E
:1022F0007BF1000B24BF624639464EEB0E0E51EACD
:10230000020718BF46F0010616EB0E7655F10002E3
:1023100054F1000103D5BDE88901BDE80088BDE89E
:102320008901BDE80048B619524141EB0101A3F112
:102330000103704780807F7E7D7C7B7A7978777619
:1023400076757473727171706F6E6E6D6C6C6B6A92
:102350006A69686867666665646463636261616030
:10236000605F5F5E5E5D5D5C5C5B5B5A5A595958AD
:102370005857575656555555545453535252525117
:10238000515050504F4F4F4E4E4D4D4D4C4C4C4B6D
:102390004B4B4A4A4A4949494848484747474746B4
:1023A00046464545454444444443434343424242F0
:1023B00042414141002B9C4630D477002BD01CB5C4
:1023C0004FEA370703B44FF010004FF01001BAF195
:1023D000000F06D0BCF1000FDCBF40F0080040F059
:1023E00008014FF000000FBCBDE810400BF1010BDD
:1023F000BBF1010F08BF5FEA170722BF12F101020C
:1024000011F101014FF0004143F1000300F00040E1
:1024100043EA00007047F9D35708D0E746EA06467A
:1024200013F1400F4FEA16461FDD13F1200FDFBFF7
:1024300016430A46002120335B42BED0C3F1200779
:1024400046EA064602FA07F74FEA164646EA070644
:10245000C3F1200722FA03F201FA07F721FA03F188
:102460004FF0000342EA0702A7E746EA020646EAFF
:1024700006464FEA164646EA0106BCBF46EA06464D
:10248000360C4FF000034FF000024FF0000194E7CC
:102490002DE9804C9A46934670B491E8380007C8FD
:1024A00031EA400C48BF34EA430C03D5FFF7E6FDA0
:1024B000FFF780FFF0BCBDE8008C2DE9804C9A4608
:1024C000934670B491E8380007C810F0804F08BFF9
:1024D00013F0804F03D100F005F8FFF76BFFF0BC5D
:1024E000BDE8008C20F07F4780EA030023F07F4C9A
:1024F00007EB0C03A3F57C5300F00040A3F1FE03AF
:1025000092F0000F00F0B38095F0000F00F077809C
:102510002DE901494FEA11404FEA144621EA0048EB
:1025200000FB06FC24EA064708FB06F607FB08F852
:1025300000FB07F718EB06484CEB164C4FEA124B22
:1025400018EB07484FEA15464CEB174022EA0B4EB2
:102550000BFB06FC25EA06470EFB06F607FB0EFE04
:102560000BFB07F71EEB064E4CEB164C4FF000062C
:102570001EEB074E4CEB174B18EB0B0840F100001D
:1025800018EB0E0B58EB000840F100008F1A4FF0CB
:1025900000013CBFC943661B14BFB5EB040C00210E
:1025A0003CBFC943F61B4FEA17444EEA8E0E27EA9A
:1025B00004454FEA1C4704FB07622CEA074C05FB65
:1025C00007F70CFB05F604FB0CFC16EB074642EB89
:1025D000174216EB0C4642EB1C421BEB060658EB6F
:1025E0000202414146EA9E0601D5BDE80189B619BD
:1025F000524141EB0101A3F10103BDE801894FEA1A
:1026000014454FEA114724EA054621EA074C05FB29
:1026100007F406FB07F70CFB06F105FB0CFC11EBBE
:10262000074144EB17444FEA124711EB0C4144EBCE
:102630001C4422EA074C05FB07F206FB07F70CFBDC
:1026400006F605FB0CFC16EB074642EB174216EBB1
:102650000C4642EB1C456A1854F1000148BF704714
:10266000B619524141EB0101A3F10103704795F006
:10267000000F37D04FEA11424FEA144721EA0246D1
:1026800024EA074C02FB07F106FB07F70CFB06F4F4
:1026900002FB0CFC14EB074441EB17414FEA1547D2
:1026A00014EB0C4441EB1C4125EA074C02FB07F5F7
:1026B00006FB07F70CFB06F602FB0CFC16EB0746C5
:1026C00045EB174516EB0C4645EB1C42121951F130
:1026D000000148BF7047B619524141EB0101A3F117
:1026E000010370474FEA14454FEA114724EA0546B3
:1026F00021EA074C05FB07F106FB07F70CFB06F286
:102700004FF0000605FB0CFC12EB074241EB1741B2
:1027100012EB0C4251EB1C4148BF7047921841EB41
:102720000101A3F10103704770B504460068816898
:10273000C943C90717D1816821F00101816001F007
:10274000C9F805460AE000BF01F0C4F8401B0228A2
:1027500004D920688068C043C00706D0206880681C
:10276000C043C007F0D0002070BDA06A40F0100048
:10277000A062E06A40F00100E062012070BD10B587
:102780000146406A826A12F0500F05D0006A026B5F
:10279000BDE8104008461047816A41F4007181622B
:1027A00001688968C1F3424107290CD1017B51B905
:1027B000816A21F480718162816AC90403D4816ACB
:1027C00041F00101816200F06DFC10BD10B5406A5E
:1027D000816A41F040018162C16A41F00401C16235
:1027E00000F062FC10BD10B5406A00F05CFC10BD4A
:1027F000F8B500260446009600688168C943C907F9
:102800002DD0816841F001018160164816490068A9
:10281000B0FBF1F000E0401E00900028FBD101F079
:1028200059F8054616E000BF01F054F8401B022895
:1028300010D920688068C043C0070BD0A06A40F060
:102840001000A062E06A40F00100E06284F82460B9
:102850000120F8BD20688068C043C007E4D1002093
:10286000F8BD00008400002040420F002DE9F04F29
:1028700099B000260C960D9681210E96817001214B
:1028800080460827C17001F025F8040E01F022F8F7
:1028900000F47F0044EA102401F01CF800F47F40AB
:1028A00044EA002401F016F844EA0061F548C8F84B
:1028B0000410F64A0178F44811B900211160016052
:1028C000F349F24A0968116002688A1A52090A92A9
:1028D000016000200D9004460E90EC48ED4A01681E
:1028E0000A9800FB0610089000BA0C9080208DF822
:1028F0003400E94832F836104389894699420BD0B2
:1029000084218DF83410BDF835300C2469F30B03A5
:10291000ADF83530A0F80A9002EBC605C389E98806
:10292000994218D09DF834300C2C43F002038DF8F6
:10293000343001D03CB10CE0BDF8363061F30F13F8
:10294000ADF8363005E0BDF8353061F30B03ADF876
:102950003530C1810C34AA888346808992468242F0
:102960001ED09DF83400182C40F001008DF8340082
:1029700003D00C2C04D054B10FE0ADF838A00CE01B
:10298000BDF836206AF30F12ADF8362005E0BDF829
:1029900035206AF30B02ADF83520ABF80CA00C34EF
:1029A000084605F097FF4FF06632BC4B05F0E2FF9A
:1029B0000022BB4B05F036FE4FF06632B74B05F0F8
:1029C000D9FF4FF03332B74B05F02CFECDE90401AF
:1029D000504605F07FFF4FF06632B04B05F0CAFF5E
:1029E0000022AF4B05F01EFE4FF06632AB4B05F0F8
:1029F000C1FF4FF03332AB4B05F014FE824600228C
:102A0000A94B029105F00EFE0022A84B05F0B2FF83
:102A1000039102991490CDF860A01191688805F097
:102A200059FF4FF066329D4B05F0A4FF00229C4BEE
:102A300005F0F8FD4FF06632984B05F09BFF4FF024
:102A40003332984B05F0EEFD82464846139105F06F
:102A500041FF4FF06632914B05F08CFF0022904B06
:102A600005F0E0FD4FF066328C4B05F083FF4FF030
:102A700033328C4B05F0D6FD02460B46DDE90401EE
:102A8000CDE9060103991498CDE90401119918982C
:102A9000CDE9020113998648CDE900A1089905F016
:102AA0009DFC9BF8020001287ED17A4830F8360060
:102AB00005F010FF4FF06632784B05F05BFF002207
:102AC000774B05F0AFFD4FF06632744B05F052FFC7
:102AD000DFF8D0A14FF03332534605F0A3FD05F0E7
:102AE000BBFC0390688805F0F5FE4FF066326B4B37
:102AF00005F040FF00226A4B05F094FD4FF066326E
:102B0000664B05F037FF4FF03332534605F08AFD30
:102B100005F0A2FC0290A88805F0DCFE4FF06632BA
:102B20005E4B05F027FF00225D4B05F07BFD4FF06B
:102B300066325A4B05F01EFF4FF03332534605F014
:102B400071FD05F089FC8146E88805F0C3FE4FF071
:102B50006632524B05F00EFF0022514B05F062FD2C
:102B60004FF066324D4B05F005FF4FF033325346C0
:102B700005F058FD05F070FC0546029800F0FEF8DF
:102B8000482812D05FF000024FF48051494800F00D
:102B90009BFEBBF80800012809D002281FD003289B
:102BA00035D0042854D143E052E00122ECE7DDE9BE
:102BB00002214B464048009505F0BAFBCDE900954F
:102BC000DDE902323C48089905F06AFBCDE9009541
:102BD000DDE902323848089905F0F8FA38E0DDE915
:102BE00002214B463448009505F0A2FBCDE9009543
:102BF000DDE902323048089905F00AFACDE900957E
:102C0000DDE902322C48089905F07AFA20E0CDE996
:102C10000095DDE902322948089905F013FBCDE95A
:102C20000095DDE902322548089905F09FFA0FE08A
:102C3000CDE90095DDE902322048089905F0B9F99F
:102C4000CDE90095DDE902321C48089905F028FA23
:102C5000600700D0012000EBD404641D08EB0700DE
:102C600022460CA9FDF78CFC3819761CB6B287B247
:102C7000202EFFF42EAE78BAA8F8000019B038461E
:102C8000BDE8F08F300000205400002058000020E4
:102C900044000020780200206000002066660A40A0
:102CA00000FEAF403333FB3F00C8A94080842E4173
:102CB00038910008001401403C0000205C00002016
:102CC000FEE70020704700207047000010B500228A
:102CD0000449054803F0C8FA0449034803F0BEFA62
:102CE000002010BD20190020580C002020150020C5
:102CF0002DE9F0410F4605460146134803F0AEFAB0
:102D0000114803F08FFA114C2088D0B9012020809F
:102D100000266680304606E0618815F8012B0B1905
:102D2000011D401C5A5439688142F5D860883988A1
:102D30000844064980B2091D6080465404F066F9D3
:102D400026800020BDE8F081580C00201C110020D6
:102D5000094A10B5D2F8B822D2F814220AB10120DB
:102D600010BD0A460146044803F07EFABDE8104053
:102D7000014803F0D7BA0000580C00202DE9F041BB
:102D800007463148007910F0FF0056D02F4D4FF024
:102D90006634012804D0022820D0032852D11DE037
:102DA00003F0EEF805F096FD22462B4605F0E2FD15
:102DB00005460C46384605F0FBFF2A46234605F03B
:102DC000D7FE07D803F0DCF806F04AF8394606F0DB
:102DD000DAF81FD9B7F17C5F32DD33E003F0D0F8C9
:102DE00005F078FD22462B4605F0C4FD05460E464B
:102DF000384605F0DDFF884604462A46334605F08E
:102E0000B7FE0AD803F0BCF806F02AF8394606F0F7
:102E1000BAF802D84820BDE8F08103F0B1F805F017
:102E200059FD0B4A0B4B05F0A5FD02460B4620460B
:102E3000414605F063FD05D802E00748874201DA04
:102E40004C20E8E74520E6E7300000206666E63FD4
:102E50009A9999999999C93FCDCCCC3E10B507481C
:102E600000F082FA06480078012806D10548064A93
:102E70000168116005490968016010BDB80B0020A8
:102E800030000020580000205400002044000020A2
:102E900030B590F840500124AC40C56B6C600468BC
:102EA00063604368102B036803D099600068C260B8
:102EB00030BD9A600068C16030BD704700F0B2BD9F
:102EC00001490020087070476200002072B6FEE7DA
:102ED000F8B500250446009590F8240001280BD091
:102EE000012084F824002046FFF71EFC2046FFF74F
:102EF0007FFC060002D050E00220F8BDA06A20F45A
:102F0000885040F00200A062022001F05FFA2549DB
:102F10000968B1FBF0F0400000E0401E009000287E
:102F2000FBD12068816841F00801816000F0D2FC8B
:102F3000074608E000F0CEFCC01B0A2803D9206831
:102F40008068000715D4206880680007F2D42068E4
:102F5000816841F00401816000F0BCFC074612E08A
:102F600000F0B8FCC01B0A280DD920688068400713
:102F700009D5A06A20F0020040F01000A06284F899
:102F800024500120F8BD206880684007E8D4A06A7A
:102F900020F0020040F00100A06284F82450304686
:102FA000F8BD000084000020F8B50024009490F8DB
:102FB00024202546012A12D0012280F824204A68C4
:102FC0001F23072A0DD20668776B521E02EB82027E
:102FD00093409F430B6893401F43776319E002209F
:102FE000F8BD06680D2A0AD2376BD21F02EB8202A7
:102FF00093409F430B6893401F43376309E0F76A90
:103000000D3A02EB820293409F430B6893401F43AB
:10301000F7620A68072306680A2A0AD3F7680A3A99
:1030200002EB420293409F438B6893401F43F7603B
:1030300008E0376902EB420293409F438B6893405C
:103040001F4337610A68102A01D0112A20D1124B80
:1030500002689A4217D193681B0219D4936843F40B
:10306000000393600968102912D10C490C4A0968C1
:10307000B1FBF2F101EB8101490000E0491E009132
:103080000029FBD104E0816A41F020018162012422
:1030900080F824502046F8BD002401408400002020
:1030A00040420F0070477047704700002DE9F04123
:1030B00004004FF000057FD0A06A002628B9E66220
:1030C00084F82460204600F081F82046FFF72CFBAE
:1030D000A16AC90600D420B1A06A40F01000A06225
:1030E0006AE0A16A21F4885141F00201A1623349EA
:1030F00023688B42E16904D1B1F5402F01D14FF42F
:103100000021277B4FF4807C41EA470261680A4333
:10311000A168614508D0012906D0002194F814E087
:10312000BEF1010F02D00AE06146F7E7C7B1A76A16
:1031300047F02007A762E76A47F00107E7625F6888
:1031400027F469470F435F60236899681C4F394033
:1031500011439960A16861450BD0012909D00CE0A9
:10316000DFF860E0A7690EEB47370F4347F40061D3
:10317000E5E7218A0D05A5F580152168CB6A23F4C2
:1031800070032B43CB62216889680F4B1940914231
:1031900008D1E662A16A21F0020141F00101A162B9
:1031A000BDE8F081A06A20F0020040F01000A062AB
:1031B000E06A40F00100E0620120F1E7003C0140DC
:1031C000FDF7E1FF00E0FFFFFE0E1FFF70B586B0C8
:1031D00000260546009601960296039600681A4955
:1031E00088422FD11949886940F400708861886944
:1031F00000F400700490886940F0100088618869CC
:10320000694600F0100004903F20009003200190D8
:103210000F4800F055FA104C0E48C4E90006802013
:10322000C4E9026040002061800060612020A0614C
:103230000002E061204600F0BBF908B1FFF746FE4E
:103240002C62656206B070BD00240140001002408F
:103250000010014008000240B80B00202DE9F047A3
:10326000894604463B4900683B4F0E1D9046884204
:1032700001D0B84207D1306810F4702F03D0012577
:103280002846BDE8F08794F8240001280CD00120DE
:1032900084F824002046FFF7ABFA05004FF0000049
:1032A00004D084F82400EBE70220EAE7A16A40F6A4
:1032B0000162914341F48071A1622168B94218D141
:1032C000326812F4702F14D0A16A41F48011A16207
:1032D0003168490505D5A16A21F4005141F48051B6
:1032E000A162A16AC9040AD5E16A21F00601E1627E
:1032F00006E0A26A22F48012A2624968E9E7E0626D
:1033000084F82400216A15488862216A1448C8623A
:10331000216A1448086321686FF002000860206881
:10332000816841F480718160216843464A464C318E
:10333000206A00F07BF920688168C1F342410729C7
:10334000816803D041F48011816099E741F4A001C4
:10335000FAE7000000240140002801407F27000810
:10336000E7270008CD2700082DE9F05FC16B0A6848
:1033700001680B68046C4FF0040808FA04F8844DE7
:10338000844E854FDFF814C2DFF81492DFF814A2E0
:10339000DFF814B2DFF814E218EA020F65D05FEA32
:1033A000437862D50A68920603D40A6822F00402C0
:1033B0000A60DFF8F0814FF48062016808F11408B8
:1033C00013011402414524D9A9420DD0B1420FD0B6
:1033D000B9421AD0614515D0494515D0514501D1A2
:1033E000120312E0594501D104220EE0714501D1CA
:1033F00040220AE06D4D1435A94206D06B4A2832AE
:10340000914201D11A4600E022466749091F0A602D
:1034100029E0A94213D0B14215D0B94220D061456C
:103420001BD049451BD0514502D14FF4800217E013
:10343000414502D14FF0806212E0594501D104228A
:103440000EE0714501D140220AE0584D1435A942E1
:1034500006D0564A2832914201D11A4600E022464F
:103460004B4908394A60C16A71E04FF0020808FA16
:1034700004F818EA020F70D05FEA83786DD50A6805
:10348000920606D40A6822F00A020A60012180F836
:103490002110DFF810814FF40072016808F1140860
:1034A00013011402414524D9A9420DD0B1420FD0D5
:1034B000B9421AD0614515D0494515D0514501D1C1
:1034C000120312E0594501D102220EE0714501D1EB
:1034D00020220AE0354D1435A94206D0334A28325D
:1034E000914201D11A4600E022462F49091F0A6085
:1034F00029E0A94213D0B14215D0B94220D061458C
:103500001BD049451BD0514502D14FF4001217E0A2
:10351000414502D14FF0007212E0594501D102221B
:103520000EE0714501D120220AE0204D1435A94258
:1035300006D01E4A2832914201D11A4600E02246A6
:10354000134908394A60002180F82010816A002957
:103550001CD0BDE8F05F0847FFE70825A5401542ED
:1035600014D01A0712D50A6822F00E020A6090F8E9
:103570004020C36B012101FA02F25A60816380F896
:103580002110002180F82010016BE0E7BDE8F09FDA
:10359000080002401C00024030000240440002408B
:1035A000580002406C000240080402401C04024023
:1035B00030B560B11A4B026814219A4209D2194BF6
:1035C0001344B3FBF1F18900016417490AE00120BB
:1035D00030BD134B5B421344B3FBF1F1890001642E
:1035E0000F490839C163022180F82110136843F69E
:1035F000F0718B43F0E901142143D0E902452C43DB
:1036000021430469214344692143846921431943C7
:10361000116000214163012242770177084630BDE5
:1036200008040240F8FFFDBF0000024070B50446E8
:1036300090F82000002501280CD0012084F82000FB
:1036400094F821600020012E06D084F82000022585
:10365000284670BD022070BD022684F82160A06358
:103660002068066826F0010606602046FFF710FC79
:10367000E06A00282068016802D041F00E0106E0EF
:1036800021F0040101602068016841F00A01016035
:103690002068016841F001010160D9E770B5044676
:1036A00000F018F90546601C02D004480078044474
:1036B00000F010F9401BA042FAD370BD7800002042
:1036C0002DE9F84FDFF8C8910024A9F1040B234637
:1036D0000F2709F1040AABF1040ED1E00125A54042
:1036E00006EA0502AA4276D1DFF8A8C14E68A6EB29
:1036F0000C0866452BD00DDC032E34D005DC36B328
:10370000012E19D0022E2FD11BE0112E16D0122E11
:103710002AD119E0B8F5881F19D006DCB8F5803F2A
:1037200015D0B8F5801F1FD111E0B8F5001F0ED0DD
:10373000B8F5041F18D10AE0CB6815E0CB681B1D53
:1037400012E0CB6808330FE0CB680C330CE08B68D9
:103750002BB1012B4FF0080303D0456104E0042393
:1037600002E0056100E00023FF2A01D8064601E0DF
:1037700000F104064FEA840501D9A5F12005D6F829
:10378000008007FA05FC28EA0C0803FA05F548EA68
:103790000508C6F800804D68ED0070D53E4DAE6955
:1037A00046F00106AE61AD6924F0030605F001059F
:1037B00000953A4D06EB050CDCF80850A607360FCD
:1037C00007FA06F825EA0805DFF8D480404503D15A
:1037D0004FF0000825E052E0DFF8C880404502D1F4
:1037E0004FF001081DE0DFF8C080404502D14FF0E6
:1037F000020816E0DFF8B480404502D14FF003081C
:103800000FE0DFF8AC80404502D14FF0040808E03B
:10381000DFF8A080404502D14FF0050801E04FF0ED
:10382000060808FA06F848EA0508CCF808804D684A
:10383000D9F80060ED024D4601D5164300E09643ED
:103840002E604D68DAF80060AD02554601D516438A
:1038500000E096432E604D68DBF80060AD035D46E6
:1038600001D5164300E096432E604D68DEF80060F7
:10387000ED03754601D5164300E096432E60641CA7
:103880000A681646E2407FF429AFBDE8F88F0000D1
:103890000804014000001110001002400000014027
:1038A00000080140000C01400010014000140140DC
:1038B00000180140001C0140C26821EA02030A40CE
:1038C00043EA0241016170470AB10161704709048E
:1038D000FBE7000001488068704700007800002086
:1038E0000148006870470000E8F7FF1F01480068C2
:1038F00070470000ECF7FF1F0148006870470000A8
:10390000F0F7FF1F02488168027811448160704718
:1039100078000020074810B5016841F010010160EF
:10392000032000F06DF80F2000F006F800F024F8F6
:10393000002010BD0020024070B50D4D04464FF42C
:103940007A712878B1FBF0F00A490968B1FBF0F010
:1039500001F0CFF948B9102C07D200222146501EA1
:1039600000F02EF800206C6070BD012070BD0000DA
:103970007800002084000020094808B5816941F0E2
:1039800001018161816901F001010091C16941F08A
:103990008051C161C06900F08050009008BD0000F6
:1039A00000100240002809DB00F01F0201219140B5
:1039B0004009800000F1E020C0F8001170470000CD
:1039C000F0B40E4B1B680C46C3F30223C3F107058A
:1039D000042D00D90425191D072901D2002300E078
:1039E000DB1E012606FA05F1491E214099409E4042
:1039F000761E16403143F0BC03F014BF0CED00E01E
:103A0000064900F0070208684FF6FF03184040EA35
:103A10000220034A10430860704700000CED00E0EC
:103A20000000FA05BFF34F8F05480168054A01F40D
:103A3000E06111430160BFF34F8F00BFFDE700005D
:103A40000CED00E00400FA0510B50C0607D501F0F6
:103A5000070101EB810100EBC100283005E001EB1B
:103A6000810100EBC10000F5B47099B232B10122BE
:103A700002730181190C4181002010BD00220273E4
:103A8000C180F9E7704701EB810200EBC202D0F878
:103A9000EC02D26B02F0F5BD01EB810200EBC20239
:103AA000D0F8EC02D2F87C2102F04EBE70B504468C
:103AB0000B0601F0070000EB800104EBC1014FF0A1
:103AC00001024FF0000503D581F82920283103E0D9
:103AD00081F8695101F5B471087094F8A8020128C1
:103AE00008D084F8A822206803F0B4FA84F8A85219
:103AF000002070BD022070BD70B5044601F00F00BB
:103B00006268904201D9012070BD0B0601F00700E8
:103B100000EB800104EBC1014FF001024FF0000502
:103B200003D581F82920283103E081F8695101F596
:103B3000B4718D70087094F8A802012808D084F838
:103B4000A822206803F023FB84F8A852002070BD4F
:103B5000022070BD2DE9F05F04685FEA424C0B78EB
:103B60008D69B4F850C04FF000064BF68F7948F2DB
:103B7000800A48F68F7B48F2C00E4FF480672AD542
:103B80004FF0020808EBC308C44407EB4C07E45BA2
:103B9000C4F30904A54203D32D1B8D6101D00BE0B2
:103BA0008E61066836F8235005EA090585F400554C
:103BB00045EA0A0526F82350520609D50D78036810
:103BC00033F8252002EA0B0242EA0E0223F82520F0
:103BD00084B30A8929E04FF0060808EBC308C444FF
:103BE00007EB4C07E45BC4F30904A54203D32D1B88
:103BF0008D6101D00BE08E61066836F8235005EA2E
:103C0000090585F4005545EA0A0526F823505206B1
:103C100009D40B78056835F8232002EA0B0242EA42
:103C20000E0225F823202CB14A89496900682346F1
:103C300003F086FD2046BDE8F09F2DE9F05F0546C4
:103C400000680C465FEA426C16468B692278B0F831
:103C500050C048F68F774CF280094FF4004B4FF676
:103C6000FF7E4FF4806A4FF0000172D54FF00208DA
:103C700008EBC208E0440AEB480C30F80C00C0F333
:103C80000900834211D91B1AA3610FD0730407D511
:103C90002E6836F822303B4043EA090326F82230EA
:103CA00094F82420012A47D052E1A161607810B134
:103CB000012813D01AE02868B0F85030184400EBFF
:103CC0000210B0F80424C2F30902A0F80424B0F8EA
:103CD000042442F40042A0F8042407E02868B0F865
:103CE0005030184400EB0210A0F8041462782868E1
:103CF00012B1012A11D018E0B0F850100844217810
:103D000000EB0110B0F80C14C1F30901A0F80C1479
:103D1000B0F80C1441F4004105E0B0F85020104414
:103D2000227800EB0210A0F80C1421782846FFF747
:103D3000AAFE700472D40BE1626902446261E26916
:103D40000244E2612369226A9A4203D31846111A97
:103D500004E03EE084F824100AB110462162617844
:103D600011B1012929D031E02968B1F8502011445E
:103D7000227801EB0211B1F80424C2F30902A1F880
:103D8000042401F204413E2807D94209C30600D1A8
:103D9000521E0B884BEA822207E048B14208C30753
:103DA00000D0521C0B880EEA822213430B800DE0D8
:103DB0000A8842F400420A8008E02968B1F85020DD
:103DC0001144227801EB0211A1F8040483B2228984
:103DD000BAE04FF0060808EBC208E0440AEB480CD2
:103DE00030F80C00C0F30900834211D31B1AA36101
:103DF0000FD0730407D42E6836F822303B4043EAD4
:103E0000090326F8223094F82420012A51D09FE09B
:103E1000A161607818B1012814D01BE03FE0286848
:103E2000B0F85030184400EB0210B0F80424C2F38C
:103E30000902A0F80424B0F8042442F40042A0F8D7
:103E4000042407E02868B0F85030184400EB021052
:103E5000A0F804146278286812B1012A11D018E081
:103E6000B0F850100844217800EB0110B0F80C14A1
:103E7000C1F30901A0F80C14B0F80C1441F400418E
:103E800005E0B0F850201044227800EB0210A0F8B2
:103E90000C1421782846FFF7F6FD700458D42278D8
:103EA000296831F82200384040EA090021F8220050
:103EB0004EE0626902446261E2690244E2612369A0
:103EC000226A9A4203D31846111A216204E00AB109
:103ED0001046216284F824106278296812B1012A00
:103EE00028D02FE0B1F850201144227801EB0211C4
:103EF000B1F80C24C2F30902A1F80C2401F20C4120
:103F00003E2807D94209C30600D1521E0B884BEA4E
:103F1000822207E048B14208C30700D0521C0B8838
:103F20000EEA822213430B800CE00A8842F400421E
:103F30000A8007E0B1F850201144227801EB021109
:103F4000A1F80C04628983B26169286803F042FC1D
:103F50002278296831F8220048F6BF73184080F0B3
:103F6000300048F28003184321F822000020BDE809
:103F7000F09F01F0070101EB810100EBC100D0F8D7
:103F8000840170472DE9F04104460F0601F0070057
:103F900000EB800104EBC1014FF001064FF000057A
:103FA00003D581F82960283103E081F8695101F5D2
:103FB000B471022B08700A61CB7000D10D7194F8B6
:103FC000A802012809D084F8A862206802F0CEFE79
:103FD000284684F8A852BDE8F0810220FBE710B51E
:103FE00001F0070404EB840100EBC101C1E95F2388
:103FF0000022C1F8842181F8692181F868410068B4
:1040000001F5B47103F018F9002010BD70B5044635
:104010000D4601F007006168884201D9012070BD9A
:1040200029064FF000064FF0010207D500EB800192
:1040300004EBC10181F82920283107E005EB850157
:1040400004EBC10181F8696101F5B4718A700870EF
:1040500094F8A802012807D084F8A822206803F069
:10406000D2F8680702D006E0022070BD04F52C717A
:10407000206803F08AF884F8A862002070BD10B5AB
:1040800001F0070404EB840100EBC101C1E90F2337
:10409000012281F84C208B6400234B6481F8292095
:1040A00001F8284F006803F0C7F8002010BD000099
:1040B0001FB50446006803F03FFB010403D520460A
:1040C00001F096FB1FBD41050DD5206830F8441F57
:1040D00021F480610180204600F010F90021204683
:1040E00000F027F91FBD410405D5206830F8441FB2
:1040F00021F4804174E0810405D5206830F8441F24
:1041000021F400516CE0C10414D5206830F8401F40
:1041100021F004010180206830F8401F21F00801DF
:104120000180204600F0FDF8206830F8441F21F49B
:10413000805155E0010540D5D4F8002000206946A3
:1041400032F8203021F81030401CC0B20828F7D3D4
:1041500032F8400F40F001001080206830F8402F06
:1041600022F0010202802068B0F844205205FBD5FD
:1041700030F8442F22F4806202800020236831F856
:10418000102023F82020401CC0B20828F6D3206855
:1041900030F8401F41F008010180206830F8441FCA
:1041A00021F400610180206830F8401F41F00401D3
:1041B0000180204600F0F2F81FBD810509D5206876
:1041C00030F8441F21F400710180204600F0ADF862
:1041D0001FBDC005FCD5206830F8441F21F4807154
:1041E00001801FBD2DE9F04186B0040004D094F891
:1041F000A902002520B108E0012006B0BDE8F08149
:1042000084F8A852204600F05BF8032084F8A90245
:10421000206802F0B3FF04F11001142288466846BA
:10422000FCF7F3F994E80F0002F0EEFE0227D0BB92
:104230000021206803F09AFA002001260EE000BF5A
:1042400000EB800104EBC10181F8296001F8280F1F
:10425000401CCD700D614D61C0B28D6161688142BD
:10426000EED8002012E000BF00EB800104EBC1019A
:1042700081F8695181F8680181F86B51C1F8785172
:10428000C1F87C51401CC0B2C1F8805161688142C4
:10429000EAD8142241466846FCF7B7F994E80F00C3
:1042A00002F063FF10B184F8A972A5E784F82450E6
:1042B00084F8A962206802F056FF00209DE7000004
:1042C00008B500680B49884212D10B48C16941F416
:1042D0000001C161C069002200F400000090114695
:1042E0001420FFF76DFBBDE808401420FFF75ABB10
:1042F00008BD0000005C00400010024070B504469C
:1043000080680125022801D0FEF7E0FD2946D4F897
:10431000EC0202F002FBD4F8EC02BDE8704002F0BF
:10432000BEBAD0F8EC0202F0E2BAD0F8EC0202F029
:10433000E8BA10B5044690F8A80201280BD0012075
:1043400084F8A80284F82410206803F011FA0020F1
:1043500084F8A80210BD022010BDD0F8EC2200F5B0
:104360002C71104602F0E5BA10B5044690F8A80288
:10437000012810D0012084F8A802206803F0CDF9AC
:1043800001212046FFF77EFB206802F0EAFE0020B4
:1043900084F8A80210BD022010BD000010B504462C
:1043A000D0F8EC0202F004FBA069002804D0034816
:1043B000016841F00601016010BD000010ED00E051
:1043C000014901200862704700000E4210B5014605
:1043D0000020284C04292FD00BDC012930D00229E1
:1043E00029D100F05BF96168C1F38131491C4900B2
:1043F0001FE0082920D010291DD161682268D20150
:1044000019D51D48C1F38342C903805C0AD5616890
:10441000194AC1F34041921E515C184AB2FBF1F1B6
:10442000484301E0164948436168490203D440000B
:104430000321B0FBF1F010BDBDE8104000F03EB923
:10444000226AC2F30121012903D1920701D5C803D1
:1044500010BD022905D1626A920702D549F6404093
:1044600010BD0329FCD121688903F9D54FF22440FE
:1044700010BD0000001002400490000800127A00F5
:1044800000093D002DE9F84305460078354CC0078A
:1044900054D0E0690026C00008D4E06940F08050A4
:1044A000E061E069012600F0805000902E4801682C
:1044B000C90512D40168804641F480710160FFF79C
:1044C00009FA074605E000BFFFF704FAC01B64289D
:1044D00023D8D8F80000C005F6D5206A10F4407043
:1044E00021D0A98801F4407181421CD0206A1F4963
:1044F000012220F440700A6000220A602062C00796
:1045000011D0FFF7E7F9074641F2883808E000BF0D
:10451000FFF7E0F9C11B414502D90320BDE8F8834C
:10452000206A8007F4D5206A696820F44070084347
:1045300020621EB1E06920F08050E0612878800799
:1045400005D56068A96820F4404008436060287879
:10455000C00605D56068696920F480000843606082
:104560000020DBE70010024000700040400442429F
:104570002DE9F0470F46050061D0434E306800F04A
:104580000700B84209D2306820F007003843306095
:10459000306800F00700B84251D128683B4C8107D1
:1045A00012D5400703D5606840F4E0606060287869
:1045B000000703D5606840F4605060606068A968D7
:1045C00020F0F000084360602878C00728D06868B1
:1045D000012810D02168022810D0890700292EDA7E
:1045E000616821F0030101436160FFF773F98046C0
:1045F00041F288390DE021688903EFE78901EDE791
:10460000FFF768F9A0EB0801494502D90320BDE88E
:10461000F0876068696800F00C00B0EB810FEFD1A3
:10462000306800F00700B8420BD9306820F007006E
:1046300038433060306800F00700B84201D00120F4
:10464000E5E72878400705D56068E96820F4E06070
:10465000084360602878000706D56068296920F45F
:10466000605040EAC100606000F028F86168084AC4
:10467000C1F30311515CC840064908600648006850
:10468000FFF75AF90020C2E7002002400010024064
:1046900014900008840000207C0000200448054994
:1046A00000684968044AC1F3C221515CC8407047A0
:1046B0008400002000100240249000080E4A516837
:1046C0000E4801F00C03042B11D0082B0FD10C481D
:1046D000C1F38343C903C05C0AD55168084AC1F3DA
:1046E0004041921E515C054A5043B0FBF1F07047C7
:1046F00004494843704700000010024000127A004D
:10470000F28F000800093D002DE9F84F040070D039
:104710002078C04DC00749D06868C0F381000128E7
:1047200007D06868C0F38100022809D16868C00317
:1047300006D52868800339D560680028E7D035E0C1
:104740006068B0F5803F0BD010B1B0F5A02F11D04C
:10475000286820F480302860286820F4802002E057
:10476000286840F480302860606890B1FFF7B2F8A4
:1047700006460AE0286840F480202860F0E700BF81
:10478000FFF7A8F8801B642873D828688003F7D542
:104790000CE0FFF79FF8064605E000BFFFF79AF828
:1047A000801B6428F0D828688003F7D420789A4EBC
:1047B00080074FF001094FF0000839D5686810F004
:1047C0000C0F07D06868C0F38100022809D168681F
:1047D000C00306D42868800714D52069012808D1B1
:1047E00010E02069B0B1C6F80090FFF773F80746F3
:1047F00005E00AE1FFF76EF8C01B0228C4D828685C
:104800008007F7D52868616920F0F80040EAC10008
:1048100028600DE0C6F80080FFF75CF8074604E06A
:10482000FFF758F8C01B022823D828688007F7D460
:10483000207800072CD57948A169D9B1C0F800903B
:10484000FFF748F8074604E0FFF744F8C01B0228CA
:104850000FD8686A8007F7D571484FF4FA5100689D
:10486000B0FBF1F0009000BF0098411E0091FAD219
:104870000EE080E0C0F80080FFF72CF8074604E067
:10488000FFF728F8C01B022875D8686A8007F7D49C
:104890002078400760D5E8690027C00008D4E8699F
:1048A00040F08050E861E869012700F080500090F6
:1048B0005C480168C90513D40168834641F48071DE
:1048C0000160FFF707F8824606E000BFFFF702F835
:1048D000A0EB0A0064284ED8DBF80000C005F5D52F
:1048E000E06801280AD008B1052813D0286A20F012
:1048F00001002862286A20F0040002E0286A40F0E3
:1049000001002862E06841F2883B98B1FEF7E2FFBF
:1049100082460BE0286A40F004002862EEE700BF00
:10492000FEF7D8FFA0EB0A0159455AD8286A80073C
:10493000F6D50CE0FEF7CEFF824605E0FEF7CAFF93
:10494000A0EB0A0159454CD8286A8007F6D41FB15C
:10495000E86920F08050E861E06988B36968C1F3D4
:104960008101022944D00228C6F8608004D0FEF7F5
:10497000B1FF044638E034E0FEF7ACFF074604E040
:10498000FEF7A8FFC01B02282BD828688001F7D4A7
:10499000206AB0F5803F05D16868A16820F4003036
:1049A00008436860D4E908010843696821F4741178
:1049B00008436860C6F86090FEF78CFF044606E086
:1049C00025E000BFFEF786FF001B022809D82868F3
:1049D0008001F7D51BE000BFFEF77CFF001B02281B
:1049E00002D90320BDE8F88F28688001F4D40EE0D6
:1049F0000128F7D06868226A00F48031914204D11E
:104A0000616A00F47010884201D00120EAE70020BA
:104A1000E8E70000001002400000424280044242E9
:104A200084000020007000407047704710B50446B5
:104A300000680168C90717D04168C90714D04068E9
:104A40004007204607D5FFF7F0FF21686FF004000C
:104A50004860042002E0FFF7E7FF0120607420684F
:104A6000416821F00101416010BD000070B50400F3
:104A700003D0607C002610B105E0012070BD2674D3
:104A8000204600F03DF802206074204600F014F942
:104A9000042550BB204601F08CF830BB20684168EB
:104AA00021F007014160A06820B11448016821F09D
:104AB000010101601148001F0168A26821F46071C2
:104AC000114301606068411C04D10120FFF77EFCA6
:104AD00058B1401E2268C0F303419160216880B242
:104AE000C860204601F080F808B16574C5E7E67338
:104AF00001206073A0736074002070BD306C0040B2
:104B000008B500680D49884217D1FFF759FC0C48D9
:104B1000C16941F00061C161C0690A4900F00060EB
:104B2000009001200860002211460320FEF748FF94
:104B3000BDE808400320FEF735BF08BD002800404F
:104B4000001002403C0442422DE9F0410D460400B1
:104B50003BD0C5B3207C01283AD04FF0010884F83F
:104B6000108002206074E87872B301F019F8E073E5
:104B7000687801F015F86073A87801F011F8A07357
:104B8000C2B2617BE07B01F068F820732870204698
:104B900001F053F84FF46161B0FBF1F100251829E1
:104BA0002DD91822B1FBF2F1A1EB011101EB41016A
:104BB000C1EB011100EBC1163146204601F08CF823
:104BC0000427C8B90BE000E004E00120BDE8F08153
:104BD0000220FBE7E07368786073A878CFE720468F
:104BE00001F024F8411C0AD0B04208D20649014421
:104BF000204601F05DF810B167742574E5E784F88C
:104C0000118025740020E1E7805101002DE9F04179
:104C10000D46040024D01DB3207C012823D04FF082
:104C2000010884F81080022060742878EAB100F04E
:104C3000B7FF4FF4616100FB01F6687800F0B0FF48
:104C4000C0EB001006EB8006A87800F0A9FF35182D
:104C50002946204601F040F80026042710BB0FE04B
:104C60000120BDE8F0810220FBE74FF46161484379
:104C70006978C1EB011100EB8100A9784518E7E7DD
:104C80002068416821F005014160204600F0CEFF18
:104C9000411C0AD0A84208D206490144204601F02E
:104CA00007F810B167742674DAE784F81180267467
:104CB0000020D6E78051010070B504000AD02068BA
:104CC000416821F008014160FEF704FE05464FF4FB
:104CD0007A7608E0012070BDFEF7FCFD401BB04273
:104CE00001D9032070BD206840680007F4D500207A
:104CF00070BD10B5401EB0F1807F01D3012010BD02
:104D00004FF0E02460610F21601702F08BFD00205E
:104D1000A06107202061002010BD7047704700008F
:104D200070B590F83C20012A2CD0012480F83C403A
:104D3000022280F83D2003685A689D6822F07006C0
:104D40000A6832435A60104B02689A420ED00F4BE9
:104D50009A420BD0B2F1804F08D00D4B9A4205D049
:104D60000C4B9A4202D00C4B9A4204D1496825F070
:104D700080031943916080F83D40002180F83C1089
:104D8000084670BD022070BD002C01400034014077
:104D90000004004000080040000C004010B5040072
:104DA00003D094F83D0010B107E0012010BD0020B1
:104DB00084F83C00204600F01FF8022084F83D00F3
:104DC000211D206801F002F8012084F8460084F8D3
:104DD0003E0084F83F0084F8400084F8410084F8E5
:104DE000420084F8430084F8440084F8450084F8C5
:104DF0003D00002010BD000000B585B000210091ED
:104E00000191029103910068114988421ED1114815
:104E1000C16941F00401C161C16901F0040104915B
:104E2000816941F0080181618069694600F00800EC
:104E30000490402000900848FEF742FC00221146F2
:104E40001E20FEF7BDFD1E20FEF7ACFD05B000BD27
:104E50000008004000100240000C014070B50446FC
:104E600090F83C000025012817D0012684F83C600A
:104E7000022084F83D002068826822F0770222F444
:104E80007F4282600868502838D00DDC20284FD03F
:104E900005DC90B3102811D14AE0022070BD302803
:104EA00046D040280AD13BE060282FD070280DD092
:104EB000B0F5805F03D0B0F5005F12D0012584F813
:104EC0003D60002084F83C00284670BDCB68D1E9E5
:104ED0000121206800F0CDFF2068816841F0770152
:104EE00009E0CB68D1E90121206800F0C2FF206809
:104EF000816841F480418160E1E719E0CA6849684E
:104F0000206800F0C8FF5021206806E0CA684968A0
:104F1000206801F007F86021206800F0B4FFCEE7B8
:104F2000CA684968206800F0B6FF40212068F4E7AD
:104F3000226801461046F0E72DE9F041154C054680
:104F40002079002813D1E07801270026012810D00D
:104F500066612682E7702868016A21F00A01016211
:104F60002868016A41F00201016228684662BDE8D2
:104F7000F0810021284600F00FFA20822868016A9B
:104F800021F00A0101622868016A0162E670277156
:104F9000EBE70000600000202DE9F041054690F8A5
:104FA0003C0000260C46012810D0012085F83C006A
:104FB00072B1042A1CD0082A2CD00C2A50D0012609
:104FC000002085F83C003046BDE8F0810220FBE778
:104FD000D4E90012E368286800F06EFF2868816950
:104FE00021F00C01816128688169A26811430FE0FA
:104FF000D4E90012E368286800F0A6FF28688169F8
:1050000021F44061816128688169A26841EA022136
:105010008161D5E72868D4E9002C277B036A016AFF
:1050200021F480710162C16923F4007321F003014E
:1050300041EA0C0121F0F00C39074FF400774CEAFB
:10504000116107EA02221A43C16102622868C1693C
:1050500021F00C01C1612868C169A26811432BE0ED
:105060002868D4E90021E768036AD0F820C02CF44E
:10507000805CC0F820C0D0F81CC023F400532CF48E
:10508000407C4CEA012121F4704C4FF6FF7101EA9B
:1050900007314FF4005741EA0C0107EA02321A4384
:1050A000C16102622868C16921F44061C161286858
:1050B000C169A26841EA0221C16181E710B504001B
:1050C00003D094F83D0010B107E0012010BD00208E
:1050D00084F83C00204600F01EF8022084F83D00D1
:1050E000211D206800F072FE012084F8460084F83B
:1050F0003E0084F83F0084F8400084F8410084F8C2
:10510000420084F8430084F8440084F8450084F8A1
:105110003D00002010BD704730B50446002551B158
:1051200004290DD0082910D094F8412094F84500A6
:10513000012A11D10EE094F83E2094F84200F7E7DE
:1051400094F83F2094F84300F2E794F8402094F854
:105150004400EDE7012801D0012030BD022059B103
:10516000042912D0082919D084F8410084F8450098
:105170000C293ED001253AE084F83E0084F8420034
:105180002068C26842F0020210E084F83F0084F810
:1051900043002068C26842F0040207E084F840003F
:1051A00084F844002068C26842F00802C26001220C
:1051B000206800F051FE1149206888420ED0104945
:1051C00088420BD0B0F1804F08D00E49884205D0FC
:1051D0000D49884202D00D49884204D1816801F00E
:1051E0000701062903D0016841F00101016028464A
:1051F00030BD2068C26842F01002D7E7002C0140A1
:10520000003401400004004000080040000C004051
:1052100070B50446006801694FF00005C94389076D
:1052200015D4C168C943890711D4E91E0161012061
:105230002077206880698007204602D0FFF77CFE37
:1052400004E000F098F8204600F096F825772068F2
:105250000169C943490717D4C168C943490713D431
:105260006FF004010161022020772068806910F44A
:10527000407F204602D0FFF75FFE04E000F07BF89D
:10528000204600F079F8257720680169C9430907AD
:1052900016D4C168C943090712D46FF0080101612F
:1052A000042020772068C0698007204602D0FFF7DD
:1052B00043FE04E000F05FF8204600F05DF825773B
:1052C00020680169C943C90617D4C168C943C90622
:1052D00013D46FF010010161082020772068C069A5
:1052E00010F4407F204602D0FFF726FE04E000F0D5
:1052F00042F8204600F040F8257720680169C9434C
:10530000C90708D1C168C943C90704D1891E016111
:10531000204600F033F820680169C943090609D422
:10532000C168C943090605D46FF0800101612046B8
:10533000FFF7F3FC20680169C943490609D4C16835
:10534000C943490605D46FF040010161204600F0D1
:1053500038F820680169C94389060BD4C168C9437C
:10536000890607D46FF0200101612046BDE8704036
:10537000FFF7D4BC70BD7047704700000548017945
:10538000002905D1C178012902D14169491C416137
:1053900070470000600000200246002041B104294F
:1053A00009D008290AD00C2901D11068006C704777
:1053B0001068406B70471068806B70471068C06B56
:1053C00070477047FEE70000F0B500230A2430253F
:1053D00037261F4611E000BFB4EB107F02D905EB62
:1053E000107C01E006EB107C01F813C001EB430CCC
:1053F00000015B1C8CF80170DBB29342ECD3F0BD72
:105400002DE9F04104462A482A4E007910F0FF00A9
:105410000CD0012807D0284F4FF06635022808D05D
:10542000032843D120E02548844214DCB4423BDB0E
:105430003CE000F0A5FD03F04DFA2A463B4603F0A0
:1054400099FA07460D46204603F0B2FC3A462B4631
:1054500003F08EFBEAD800F093FD03F001FD214636
:1054600003F091FDE2D819E000F08AFD03F032FA72
:105470002A463B4603F07EFA06460D46204603F0D8
:1054800097FC32462B4603F073FB0AD800F078FDF8
:1054900003F0E6FC214603F076FD02D84820BDE883
:1054A000F0810748844201DA4C20F8E74520F6E70E
:1054B00030000020CDCCCC3E6666E63F33337340EF
:1054C0009A99993E034A012111708088024940BA95
:1054D0000880704762000020680000203EB500216F
:1054E0001C48009101911A4A029102609215826053
:1054F00001240473017503254FF460220561C26124
:105500004160FDF7D3FD08B1FDF7E0FC0A20CDE9CD
:105510000004022469460F480294FDF745FD08B1D6
:10552000FDF7D4FC0C20CDE9000469460948FDF7DD
:105530003BFD08B1FDF7CAFC0D20CDE90005694629
:105540000448FDF731FD002801D0FDF7BFFC3EBD4A
:1055500000240140880B0020094808B5416941F04A
:10556000010141614069002200F0010000901146F4
:105570000B20FEF725FABDE808400B20FEF712BA13
:10558000001002402DE9F04F85B000263D480096FE
:10559000019602960396816941F01001816181694B
:1055A00001F010010491816941F0800181618169FC
:1055B00001F080010491816941F480718161816908
:1055C00001F480710491816941F008018161816970
:1055D00001F008010491816941F020018161816934
:1055E00001F020010491816941F004018161806929
:1055F000DFF8949000F004004FF40064049000225F
:1056000021464846FEF760F9DFF880A001221146E6
:105610005046FEF759F9DFF878B04FF440570022B2
:1056200039465846FEF750F94FF48058012241465A
:105630001848FEF749F90094022501240395CDE9A5
:10564000014669464846FEF73BF80094CDE901451E
:10565000694650460395FEF733F800970395CDE968
:10566000014669465846FEF72BF8CDF800800395B1
:10567000CDE9014669460748FEF722F805B0BDE8C6
:10568000F08F000000100240001C0140002001408B
:10569000000C0140001401401CB50024184801947E
:1056A000164900940160611E41604FF48071816071
:1056B000FFF7DCF908B1FDF709FC8DF804408DF81F
:1056C00005408DF80640012201A90D48FFF79EFA1A
:1056D00008B1FDF7FBFB01208DF800008DF80100FB
:1056E0008DF8020002468DF8034069460448FFF732
:1056F0002BFA002801D0FDF7E9FB1CBD0028004073
:10570000FC0B002010B58AB00024224804940594B4
:1057100006940794089409940094019402941C49F7
:10572000039401604721C0E9011440F2E731C0E968
:1057300003148461FFF732FB08B1FDF7C7FB4FF498
:105740008050049004A91348FFF788FB08B1FDF7C7
:10575000BDFB1048FFF7B2FC08B1FDF7B7FB08949A
:1057600008A90C480994FFF7DBFA08B1FDF7AEFB76
:105770000120CDE9004002940022694605480394C7
:10578000FFF70AFC002801D0FDF7A0FB0AB010BD0E
:1057900000080040100C002010B500220F491048EE
:1057A00000F048FF08B1FDF791FB0E490C4801F0ED
:1057B00025F908B1FDF78AFB0B49094800F046FDC1
:1057C00008B1FDF783FB064801F06EF9002803D00D
:1057D000BDE81040FDF77ABB10BD00008800002036
:1057E000580C0020F401002008010020FEE7FEE72D
:1057F0002DE9F84F044640F68F7B48F60F794FF4B9
:1058000080684FF0000AC0E1B0F8441011F00F05B5
:1058100039D030F8256031047ED530F8251001EA02
:105820000B0141F0800120F8251005EB850004EB09
:10583000C00797F8740107F5B47700286DD0F878A1
:1058400002286BD03978226832F8210048F68F732D
:10585000184048F2C003184322F821003978206824
:1058600030F82120B0F8503052047DD5022202EBEE
:10587000C1015A1808EB4201415A8905890D00916E
:1058800073D03A89DFE0C9062DD4018801EA090105
:1058900041F400410180206804F12805B0F850303F
:1058A0002978022202EBC1015A1808EB4201405A42
:1058B000C0F309006064E16B0844E0630021204606
:1058C000FEF7E1F894F8240000289CD0A86900288D
:1058D00099D194F82400216840F08000A1F84C0090
:1058E00084F824A051E1018804F5B4750A0521D596
:1058F000B0F850202B78062101EBC3010A4408EBD5
:105900004201405A04F52C71C0F30903EB61EA88A7
:10591000206801F015FF02E0B0E070E080E0206850
:10592000018801EA0B0141F0800101802046FEF769
:1059300014FD2AE10904D5D5018801EA0B0141F0E3
:10594000800101802068B0F850202B78062101EBFF
:10595000C3010A4408EB4201405A83059B0DEB61E9
:1059600010D0696971B101E061E05FE0EA88206808
:1059700001F0E6FEE9696869084468610021204693
:10598000FEF78AF8216808880205ABD4C0F301301D
:105990000328A7D0B1F850000844B0F80C14C1F3A4
:1059A0000901A0F80C142A6900F20C403E2A09D91A
:1059B0005109D20600D1491E02884FF4004343EA40
:1059C000812109E0B2B15108D20700D0491C0288F8
:1059D0004FF6FF7303EA81210A4302802168088899
:1059E0004BF68F72104080F4405048F28002104312
:1059F0000880CAE0018841F400410180EEE7206898
:105A0000B0F850203B78062101EBC3010A4408EBB3
:105A10004201415A8905890D009118D0FA8812E097
:105A2000324639462046FEF795F800900FE00622F0
:105A300002EBC1015A1808EB4201415A8905890D50
:105A4000009104D07A897969009B01F079FEF869A8
:105A500000990844F8617969009808447861B86948
:105A600018B139690098814204D939782046FEF787
:105A700013F803E03946206801F0DEFB30062FD52D
:105A800005EB850004EBC001206830F8252002EA10
:105A9000090242F4004220F8252091F82B00283119
:105AA00001281ED0F0056CD42068B0F850300D7875
:105AB000022202EBC5021A4408EB4202805A8A69AC
:105AC000C0F30900824255D9121A8A6154D04A693A
:105AD00002444A61CA691044C861206801F0ACFB05
